{
  "address": "0x7fD8b6dABFB3192Ff425399a89d56895f67731E0",
  "abi": [
    {
      "inputs": [],
      "stateMutability": "nonpayable",
      "type": "constructor"
    },
    {
      "inputs": [],
      "name": "InvalidInitialization",
      "type": "error"
    },
    {
      "inputs": [],
      "name": "NotInitializing",
      "type": "error"
    },
    {
      "inputs": [
        {
          "internalType": "address",
          "name": "owner",
          "type": "address"
        }
      ],
      "name": "OwnableInvalidOwner",
      "type": "error"
    },
    {
      "inputs": [
        {
          "internalType": "address",
          "name": "account",
          "type": "address"
        }
      ],
      "name": "OwnableUnauthorizedAccount",
      "type": "error"
    },
    {
      "inputs": [],
      "name": "ReentrancyGuardReentrantCall",
      "type": "error"
    },
    {
      "inputs": [
        {
          "internalType": "bytes32",
          "name": "domainName",
          "type": "bytes32"
        }
      ],
      "name": "domainNotActive",
      "type": "error"
    },
    {
      "inputs": [
        {
          "internalType": "bytes32",
          "name": "domainName",
          "type": "bytes32"
        }
      ],
      "name": "invalidDomain",
      "type": "error"
    },
    {
      "inputs": [
        {
          "internalType": "uint256",
          "name": "nonce",
          "type": "uint256"
        }
      ],
      "name": "invalidNonce",
      "type": "error"
    },
    {
      "inputs": [
        {
          "internalType": "uint256",
          "name": "old",
          "type": "uint256"
        },
        {
          "internalType": "uint256",
          "name": "newer",
          "type": "uint256"
        }
      ],
      "name": "invalidNonceIncrement",
      "type": "error"
    },
    {
      "inputs": [
        {
          "internalType": "enum IMultipass.InvalidQueryReasons",
          "name": "reason",
          "type": "uint8"
        }
      ],
      "name": "invalidQuery",
      "type": "error"
    },
    {
      "inputs": [
        {
          "internalType": "address",
          "name": "registrar",
          "type": "address"
        }
      ],
      "name": "invalidRegistrar",
      "type": "error"
    },
    {
      "inputs": [],
      "name": "invalidSignature",
      "type": "error"
    },
    {
      "inputs": [
        {
          "internalType": "bytes32",
          "name": "domainName",
          "type": "bytes32"
        },
        {
          "internalType": "bytes32",
          "name": "newName",
          "type": "bytes32"
        }
      ],
      "name": "invalidnameChange",
      "type": "error"
    },
    {
      "inputs": [
        {
          "internalType": "bytes32",
          "name": "name",
          "type": "bytes32"
        },
        {
          "internalType": "bool",
          "name": "isActive",
          "type": "bool"
        }
      ],
      "name": "isActive",
      "type": "error"
    },
    {
      "inputs": [
        {
          "internalType": "uint256",
          "name": "a",
          "type": "uint256"
        },
        {
          "internalType": "uint256",
          "name": "b",
          "type": "uint256"
        }
      ],
      "name": "mathOverflow",
      "type": "error"
    },
    {
      "inputs": [
        {
          "internalType": "bytes32",
          "name": "name",
          "type": "bytes32"
        }
      ],
      "name": "nameExists",
      "type": "error"
    },
    {
      "inputs": [],
      "name": "paymendFailed",
      "type": "error"
    },
    {
      "inputs": [
        {
          "internalType": "uint256",
          "name": "fee",
          "type": "uint256"
        },
        {
          "internalType": "uint256",
          "name": "value",
          "type": "uint256"
        }
      ],
      "name": "paymentTooLow",
      "type": "error"
    },
    {
      "inputs": [
        {
          "components": [
            {
              "internalType": "address",
              "name": "wallet",
              "type": "address"
            },
            {
              "internalType": "bytes32",
              "name": "name",
              "type": "bytes32"
            },
            {
              "internalType": "bytes32",
              "name": "id",
              "type": "bytes32"
            },
            {
              "internalType": "uint96",
              "name": "nonce",
              "type": "uint96"
            },
            {
              "internalType": "bytes32",
              "name": "domainName",
              "type": "bytes32"
            },
            {
              "internalType": "uint256",
              "name": "validUntil",
              "type": "uint256"
            }
          ],
          "internalType": "struct LibMultipass.Record",
          "name": "newRecord",
          "type": "tuple"
        }
      ],
      "name": "recordExists",
      "type": "error"
    },
    {
      "inputs": [
        {
          "internalType": "uint256",
          "name": "referrerReward",
          "type": "uint256"
        },
        {
          "internalType": "uint256",
          "name": "referralDiscount",
          "type": "uint256"
        },
        {
          "internalType": "uint256",
          "name": "fee",
          "type": "uint256"
        }
      ],
      "name": "referralRewardsTooHigh",
      "type": "error"
    },
    {
      "inputs": [],
      "name": "referredSelf",
      "type": "error"
    },
    {
      "inputs": [
        {
          "internalType": "uint256",
          "name": "signatureDeadline",
          "type": "uint256"
        }
      ],
      "name": "signatureExpired",
      "type": "error"
    },
    {
      "inputs": [
        {
          "components": [
            {
              "internalType": "bytes32",
              "name": "domainName",
              "type": "bytes32"
            },
            {
              "internalType": "address",
              "name": "wallet",
              "type": "address"
            },
            {
              "internalType": "bytes32",
              "name": "name",
              "type": "bytes32"
            },
            {
              "internalType": "bytes32",
              "name": "id",
              "type": "bytes32"
            },
            {
              "internalType": "bytes32",
              "name": "targetDomain",
              "type": "bytes32"
            }
          ],
          "internalType": "struct LibMultipass.NameQuery",
          "name": "query",
          "type": "tuple"
        }
      ],
      "name": "userNotFound",
      "type": "error"
    },
    {
      "anonymous": false,
      "inputs": [
        {
          "indexed": true,
          "internalType": "bytes32",
          "name": "domainName",
          "type": "bytes32"
        }
      ],
      "name": "DomainActivated",
      "type": "event"
    },
    {
      "anonymous": false,
      "inputs": [
        {
          "indexed": true,
          "internalType": "bytes32",
          "name": "domainName",
          "type": "bytes32"
        }
      ],
      "name": "DomainDeactivated",
      "type": "event"
    },
    {
      "anonymous": false,
      "inputs": [
        {
          "indexed": true,
          "internalType": "bytes32",
          "name": "domainName",
          "type": "bytes32"
        },
        {
          "indexed": true,
          "internalType": "uint256",
          "name": "newFee",
          "type": "uint256"
        }
      ],
      "name": "DomainFeeChanged",
      "type": "event"
    },
    {
      "anonymous": false,
      "inputs": [],
      "name": "EIP712DomainChanged",
      "type": "event"
    },
    {
      "anonymous": false,
      "inputs": [
        {
          "indexed": false,
          "internalType": "uint64",
          "name": "version",
          "type": "uint64"
        }
      ],
      "name": "Initialized",
      "type": "event"
    },
    {
      "anonymous": false,
      "inputs": [
        {
          "indexed": true,
          "internalType": "address",
          "name": "registrar",
          "type": "address"
        },
        {
          "indexed": true,
          "internalType": "uint256",
          "name": "fee",
          "type": "uint256"
        },
        {
          "indexed": true,
          "internalType": "bytes32",
          "name": "domainName",
          "type": "bytes32"
        },
        {
          "indexed": false,
          "internalType": "uint256",
          "name": "renewalFee",
          "type": "uint256"
        },
        {
          "indexed": false,
          "internalType": "uint256",
          "name": "referrerReward",
          "type": "uint256"
        },
        {
          "indexed": false,
          "internalType": "uint256",
          "name": "referralDiscount",
          "type": "uint256"
        }
      ],
      "name": "InitializedDomain",
      "type": "event"
    },
    {
      "anonymous": false,
      "inputs": [
        {
          "indexed": true,
          "internalType": "address",
          "name": "previousOwner",
          "type": "address"
        },
        {
          "indexed": true,
          "internalType": "address",
          "name": "newOwner",
          "type": "address"
        }
      ],
      "name": "OwnershipTransferred",
      "type": "event"
    },
    {
      "anonymous": false,
      "inputs": [
        {
          "indexed": true,
          "internalType": "bytes32",
          "name": "domainName",
          "type": "bytes32"
        },
        {
          "indexed": false,
          "internalType": "uint256",
          "name": "reward",
          "type": "uint256"
        },
        {
          "indexed": false,
          "internalType": "uint256",
          "name": "discount",
          "type": "uint256"
        }
      ],
      "name": "ReferralProgramChanged",
      "type": "event"
    },
    {
      "anonymous": false,
      "inputs": [
        {
          "components": [
            {
              "internalType": "address",
              "name": "wallet",
              "type": "address"
            },
            {
              "internalType": "bytes32",
              "name": "name",
              "type": "bytes32"
            },
            {
              "internalType": "bytes32",
              "name": "id",
              "type": "bytes32"
            },
            {
              "internalType": "uint96",
              "name": "nonce",
              "type": "uint96"
            },
            {
              "internalType": "bytes32",
              "name": "domainName",
              "type": "bytes32"
            },
            {
              "internalType": "uint256",
              "name": "validUntil",
              "type": "uint256"
            }
          ],
          "indexed": false,
          "internalType": "struct LibMultipass.Record",
          "name": "refferrer",
          "type": "tuple"
        },
        {
          "components": [
            {
              "internalType": "address",
              "name": "wallet",
              "type": "address"
            },
            {
              "internalType": "bytes32",
              "name": "name",
              "type": "bytes32"
            },
            {
              "internalType": "bytes32",
              "name": "id",
              "type": "bytes32"
            },
            {
              "internalType": "uint96",
              "name": "nonce",
              "type": "uint96"
            },
            {
              "internalType": "bytes32",
              "name": "domainName",
              "type": "bytes32"
            },
            {
              "internalType": "uint256",
              "name": "validUntil",
              "type": "uint256"
            }
          ],
          "indexed": false,
          "internalType": "struct LibMultipass.Record",
          "name": "newRecord",
          "type": "tuple"
        },
        {
          "indexed": true,
          "internalType": "bytes32",
          "name": "domainName",
          "type": "bytes32"
        }
      ],
      "name": "Referred",
      "type": "event"
    },
    {
      "anonymous": false,
      "inputs": [
        {
          "indexed": true,
          "internalType": "bytes32",
          "name": "domainName",
          "type": "bytes32"
        },
        {
          "components": [
            {
              "internalType": "address",
              "name": "wallet",
              "type": "address"
            },
            {
              "internalType": "bytes32",
              "name": "name",
              "type": "bytes32"
            },
            {
              "internalType": "bytes32",
              "name": "id",
              "type": "bytes32"
            },
            {
              "internalType": "uint96",
              "name": "nonce",
              "type": "uint96"
            },
            {
              "internalType": "bytes32",
              "name": "domainName",
              "type": "bytes32"
            },
            {
              "internalType": "uint256",
              "name": "validUntil",
              "type": "uint256"
            }
          ],
          "indexed": false,
          "internalType": "struct LibMultipass.Record",
          "name": "NewRecord",
          "type": "tuple"
        }
      ],
      "name": "Registered",
      "type": "event"
    },
    {
      "anonymous": false,
      "inputs": [
        {
          "indexed": true,
          "internalType": "bytes32",
          "name": "domainName",
          "type": "bytes32"
        },
        {
          "indexed": true,
          "internalType": "address",
          "name": "registrar",
          "type": "address"
        }
      ],
      "name": "RegistrarChanged",
      "type": "event"
    },
    {
      "anonymous": false,
      "inputs": [
        {
          "indexed": true,
          "internalType": "bytes32",
          "name": "domainName",
          "type": "bytes32"
        },
        {
          "indexed": true,
          "internalType": "uint256",
          "name": "newFee",
          "type": "uint256"
        }
      ],
      "name": "RenewalFeeChanged",
      "type": "event"
    },
    {
      "anonymous": false,
      "inputs": [
        {
          "indexed": true,
          "internalType": "address",
          "name": "wallet",
          "type": "address"
        },
        {
          "indexed": true,
          "internalType": "bytes32",
          "name": "domainName",
          "type": "bytes32"
        },
        {
          "indexed": true,
          "internalType": "bytes32",
          "name": "id",
          "type": "bytes32"
        },
        {
          "components": [
            {
              "internalType": "address",
              "name": "wallet",
              "type": "address"
            },
            {
              "internalType": "bytes32",
              "name": "name",
              "type": "bytes32"
            },
            {
              "internalType": "bytes32",
              "name": "id",
              "type": "bytes32"
            },
            {
              "internalType": "uint96",
              "name": "nonce",
              "type": "uint96"
            },
            {
              "internalType": "bytes32",
              "name": "domainName",
              "type": "bytes32"
            },
            {
              "internalType": "uint256",
              "name": "validUntil",
              "type": "uint256"
            }
          ],
          "indexed": false,
          "internalType": "struct LibMultipass.Record",
          "name": "newRecord",
          "type": "tuple"
        }
      ],
      "name": "Renewed",
      "type": "event"
    },
    {
      "anonymous": false,
      "inputs": [
        {
          "indexed": true,
          "internalType": "uint256",
          "name": "amount",
          "type": "uint256"
        },
        {
          "indexed": true,
          "internalType": "address",
          "name": "account",
          "type": "address"
        }
      ],
      "name": "fundsWithdawn",
      "type": "event"
    },
    {
      "anonymous": false,
      "inputs": [
        {
          "indexed": true,
          "internalType": "bytes32",
          "name": "domainName",
          "type": "bytes32"
        },
        {
          "indexed": true,
          "internalType": "address",
          "name": "wallet",
          "type": "address"
        },
        {
          "indexed": true,
          "internalType": "bytes32",
          "name": "id",
          "type": "bytes32"
        },
        {
          "indexed": false,
          "internalType": "bytes32",
          "name": "name",
          "type": "bytes32"
        }
      ],
      "name": "nameDeleted",
      "type": "event"
    },
    {
      "inputs": [
        {
          "internalType": "bytes32",
          "name": "domainName",
          "type": "bytes32"
        }
      ],
      "name": "activateDomain",
      "outputs": [],
      "stateMutability": "nonpayable",
      "type": "function"
    },
    {
      "inputs": [
        {
          "internalType": "bytes32",
          "name": "domainName",
          "type": "bytes32"
        },
        {
          "internalType": "uint256",
          "name": "fee",
          "type": "uint256"
        }
      ],
      "name": "changeFee",
      "outputs": [],
      "stateMutability": "nonpayable",
      "type": "function"
    },
    {
      "inputs": [
        {
          "internalType": "uint256",
          "name": "referrerReward",
          "type": "uint256"
        },
        {
          "internalType": "uint256",
          "name": "referralDiscount",
          "type": "uint256"
        },
        {
          "internalType": "bytes32",
          "name": "domainName",
          "type": "bytes32"
        }
      ],
      "name": "changeReferralProgram",
      "outputs": [],
      "stateMutability": "nonpayable",
      "type": "function"
    },
    {
      "inputs": [
        {
          "internalType": "bytes32",
          "name": "domainName",
          "type": "bytes32"
        },
        {
          "internalType": "address",
          "name": "newRegistrar",
          "type": "address"
        }
      ],
      "name": "changeRegistrar",
      "outputs": [],
      "stateMutability": "nonpayable",
      "type": "function"
    },
    {
      "inputs": [
        {
          "internalType": "uint256",
          "name": "fee",
          "type": "uint256"
        },
        {
          "internalType": "bytes32",
          "name": "domainName",
          "type": "bytes32"
        }
      ],
      "name": "changeRenewalFee",
      "outputs": [],
      "stateMutability": "nonpayable",
      "type": "function"
    },
    {
      "inputs": [
        {
          "internalType": "bytes32",
          "name": "domainName",
          "type": "bytes32"
        }
      ],
      "name": "deactivateDomain",
      "outputs": [],
      "stateMutability": "nonpayable",
      "type": "function"
    },
    {
      "inputs": [
        {
          "components": [
            {
              "internalType": "bytes32",
              "name": "domainName",
              "type": "bytes32"
            },
            {
              "internalType": "address",
              "name": "wallet",
              "type": "address"
            },
            {
              "internalType": "bytes32",
              "name": "name",
              "type": "bytes32"
            },
            {
              "internalType": "bytes32",
              "name": "id",
              "type": "bytes32"
            },
            {
              "internalType": "bytes32",
              "name": "targetDomain",
              "type": "bytes32"
            }
          ],
          "internalType": "struct LibMultipass.NameQuery",
          "name": "query",
          "type": "tuple"
        }
      ],
      "name": "deleteName",
      "outputs": [],
      "stateMutability": "nonpayable",
      "type": "function"
    },
    {
      "inputs": [],
      "name": "eip712Domain",
      "outputs": [
        {
          "internalType": "bytes1",
          "name": "fields",
          "type": "bytes1"
        },
        {
          "internalType": "string",
          "name": "name",
          "type": "string"
        },
        {
          "internalType": "string",
          "name": "version",
          "type": "string"
        },
        {
          "internalType": "uint256",
          "name": "chainId",
          "type": "uint256"
        },
        {
          "internalType": "address",
          "name": "verifyingContract",
          "type": "address"
        },
        {
          "internalType": "bytes32",
          "name": "salt",
          "type": "bytes32"
        },
        {
          "internalType": "uint256[]",
          "name": "extensions",
          "type": "uint256[]"
        }
      ],
      "stateMutability": "view",
      "type": "function"
    },
    {
      "inputs": [],
      "name": "getContractState",
      "outputs": [
        {
          "internalType": "uint256",
          "name": "",
          "type": "uint256"
        }
      ],
      "stateMutability": "view",
      "type": "function"
    },
    {
      "inputs": [
        {
          "internalType": "bytes32",
          "name": "domainName",
          "type": "bytes32"
        }
      ],
      "name": "getDomainState",
      "outputs": [
        {
          "components": [
            {
              "internalType": "bytes32",
              "name": "name",
              "type": "bytes32"
            },
            {
              "internalType": "uint256",
              "name": "fee",
              "type": "uint256"
            },
            {
              "internalType": "uint256",
              "name": "referrerReward",
              "type": "uint256"
            },
            {
              "internalType": "uint256",
              "name": "referralDiscount",
              "type": "uint256"
            },
            {
              "internalType": "bool",
              "name": "isActive",
              "type": "bool"
            },
            {
              "internalType": "address",
              "name": "registrar",
              "type": "address"
            },
            {
              "internalType": "uint24",
              "name": "ttl",
              "type": "uint24"
            },
            {
              "internalType": "uint256",
              "name": "registerSize",
              "type": "uint256"
            },
            {
              "internalType": "uint256",
              "name": "renewalFee",
              "type": "uint256"
            }
          ],
          "internalType": "struct LibMultipass.Domain",
          "name": "",
          "type": "tuple"
        }
      ],
      "stateMutability": "view",
      "type": "function"
    },
    {
      "inputs": [
        {
          "internalType": "uint256",
          "name": "id",
          "type": "uint256"
        }
      ],
      "name": "getDomainStateById",
      "outputs": [
        {
          "components": [
            {
              "internalType": "bytes32",
              "name": "name",
              "type": "bytes32"
            },
            {
              "internalType": "uint256",
              "name": "fee",
              "type": "uint256"
            },
            {
              "internalType": "uint256",
              "name": "referrerReward",
              "type": "uint256"
            },
            {
              "internalType": "uint256",
              "name": "referralDiscount",
              "type": "uint256"
            },
            {
              "internalType": "bool",
              "name": "isActive",
              "type": "bool"
            },
            {
              "internalType": "address",
              "name": "registrar",
              "type": "address"
            },
            {
              "internalType": "uint24",
              "name": "ttl",
              "type": "uint24"
            },
            {
              "internalType": "uint256",
              "name": "registerSize",
              "type": "uint256"
            },
            {
              "internalType": "uint256",
              "name": "renewalFee",
              "type": "uint256"
            }
          ],
          "internalType": "struct LibMultipass.Domain",
          "name": "",
          "type": "tuple"
        }
      ],
      "stateMutability": "view",
      "type": "function"
    },
    {
      "inputs": [
        {
          "internalType": "string",
          "name": "name",
          "type": "string"
        },
        {
          "internalType": "string",
          "name": "version",
          "type": "string"
        },
        {
          "internalType": "address",
          "name": "owner",
          "type": "address"
        }
      ],
      "name": "initialize",
      "outputs": [],
      "stateMutability": "nonpayable",
      "type": "function"
    },
    {
      "inputs": [
        {
          "internalType": "address",
          "name": "registrar",
          "type": "address"
        },
        {
          "internalType": "uint256",
          "name": "fee",
          "type": "uint256"
        },
        {
          "internalType": "uint256",
          "name": "renewalFee",
          "type": "uint256"
        },
        {
          "internalType": "bytes32",
          "name": "domainName",
          "type": "bytes32"
        },
        {
          "internalType": "uint256",
          "name": "referrerReward",
          "type": "uint256"
        },
        {
          "internalType": "uint256",
          "name": "referralDiscount",
          "type": "uint256"
        }
      ],
      "name": "initializeDomain",
      "outputs": [],
      "stateMutability": "nonpayable",
      "type": "function"
    },
    {
      "inputs": [],
      "name": "owner",
      "outputs": [
        {
          "internalType": "address",
          "name": "",
          "type": "address"
        }
      ],
      "stateMutability": "view",
      "type": "function"
    },
    {
      "inputs": [
        {
          "components": [
            {
              "internalType": "address",
              "name": "wallet",
              "type": "address"
            },
            {
              "internalType": "bytes32",
              "name": "name",
              "type": "bytes32"
            },
            {
              "internalType": "bytes32",
              "name": "id",
              "type": "bytes32"
            },
            {
              "internalType": "uint96",
              "name": "nonce",
              "type": "uint96"
            },
            {
              "internalType": "bytes32",
              "name": "domainName",
              "type": "bytes32"
            },
            {
              "internalType": "uint256",
              "name": "validUntil",
              "type": "uint256"
            }
          ],
          "internalType": "struct LibMultipass.Record",
          "name": "newRecord",
          "type": "tuple"
        },
        {
          "internalType": "bytes",
          "name": "registrarSignature",
          "type": "bytes"
        },
        {
          "components": [
            {
              "internalType": "bytes32",
              "name": "domainName",
              "type": "bytes32"
            },
            {
              "internalType": "address",
              "name": "wallet",
              "type": "address"
            },
            {
              "internalType": "bytes32",
              "name": "name",
              "type": "bytes32"
            },
            {
              "internalType": "bytes32",
              "name": "id",
              "type": "bytes32"
            },
            {
              "internalType": "bytes32",
              "name": "targetDomain",
              "type": "bytes32"
            }
          ],
          "internalType": "struct LibMultipass.NameQuery",
          "name": "referrer",
          "type": "tuple"
        },
        {
          "internalType": "bytes",
          "name": "referralCode",
          "type": "bytes"
        }
      ],
      "name": "register",
      "outputs": [],
      "stateMutability": "payable",
      "type": "function"
    },
    {
      "inputs": [
        {
          "components": [
            {
              "internalType": "bytes32",
              "name": "domainName",
              "type": "bytes32"
            },
            {
              "internalType": "address",
              "name": "wallet",
              "type": "address"
            },
            {
              "internalType": "bytes32",
              "name": "name",
              "type": "bytes32"
            },
            {
              "internalType": "bytes32",
              "name": "id",
              "type": "bytes32"
            },
            {
              "internalType": "bytes32",
              "name": "targetDomain",
              "type": "bytes32"
            }
          ],
          "internalType": "struct LibMultipass.NameQuery",
          "name": "query",
          "type": "tuple"
        },
        {
          "components": [
            {
              "internalType": "address",
              "name": "wallet",
              "type": "address"
            },
            {
              "internalType": "bytes32",
              "name": "name",
              "type": "bytes32"
            },
            {
              "internalType": "bytes32",
              "name": "id",
              "type": "bytes32"
            },
            {
              "internalType": "uint96",
              "name": "nonce",
              "type": "uint96"
            },
            {
              "internalType": "bytes32",
              "name": "domainName",
              "type": "bytes32"
            },
            {
              "internalType": "uint256",
              "name": "validUntil",
              "type": "uint256"
            }
          ],
          "internalType": "struct LibMultipass.Record",
          "name": "record",
          "type": "tuple"
        },
        {
          "internalType": "bytes",
          "name": "registrarSignature",
          "type": "bytes"
        }
      ],
      "name": "renewRecord",
      "outputs": [],
      "stateMutability": "payable",
      "type": "function"
    },
    {
      "inputs": [],
      "name": "renounceOwnership",
      "outputs": [],
      "stateMutability": "nonpayable",
      "type": "function"
    },
    {
      "inputs": [
        {
          "components": [
            {
              "internalType": "bytes32",
              "name": "domainName",
              "type": "bytes32"
            },
            {
              "internalType": "address",
              "name": "wallet",
              "type": "address"
            },
            {
              "internalType": "bytes32",
              "name": "name",
              "type": "bytes32"
            },
            {
              "internalType": "bytes32",
              "name": "id",
              "type": "bytes32"
            },
            {
              "internalType": "bytes32",
              "name": "targetDomain",
              "type": "bytes32"
            }
          ],
          "internalType": "struct LibMultipass.NameQuery",
          "name": "query",
          "type": "tuple"
        }
      ],
      "name": "resolveRecord",
      "outputs": [
        {
          "internalType": "bool",
          "name": "",
          "type": "bool"
        },
        {
          "components": [
            {
              "internalType": "address",
              "name": "wallet",
              "type": "address"
            },
            {
              "internalType": "bytes32",
              "name": "name",
              "type": "bytes32"
            },
            {
              "internalType": "bytes32",
              "name": "id",
              "type": "bytes32"
            },
            {
              "internalType": "uint96",
              "name": "nonce",
              "type": "uint96"
            },
            {
              "internalType": "bytes32",
              "name": "domainName",
              "type": "bytes32"
            },
            {
              "internalType": "uint256",
              "name": "validUntil",
              "type": "uint256"
            }
          ],
          "internalType": "struct LibMultipass.Record",
          "name": "",
          "type": "tuple"
        }
      ],
      "stateMutability": "view",
      "type": "function"
    },
    {
      "inputs": [
        {
          "internalType": "bytes4",
          "name": "interfaceId",
          "type": "bytes4"
        }
      ],
      "name": "supportsInterface",
      "outputs": [
        {
          "internalType": "bool",
          "name": "",
          "type": "bool"
        }
      ],
      "stateMutability": "view",
      "type": "function"
    },
    {
      "inputs": [
        {
          "internalType": "address",
          "name": "newOwner",
          "type": "address"
        }
      ],
      "name": "transferOwnership",
      "outputs": [],
      "stateMutability": "nonpayable",
      "type": "function"
    }
  ],
  "transactionHash": "0xa942fe08a0151a26d886938e7edd867717a7c2430ac527670c828885470883bf",
  "args": [],
  "numDeployments": 1,
  "solcInputHash": "4162c9dd9447dcbfe9da076cafcce71b",
  "bytecode": "0x6080604052348015600f57600080fd5b506016601a565b60ca565b7ff0c57e16840df040f15088dc2f81fe391c3923bec73e23a9662efc9c229c6a00805468010000000000000000900460ff161560695760405163f92ee8a960e01b815260040160405180910390fd5b80546001600160401b039081161460c75780546001600160401b0319166001600160401b0390811782556040519081527fc7f505b2f371ae2175ee4913f4499e1f2633a7b5936321eed1cdaeb6115181d29060200160405180910390a15b50565b6132fa806100d96000396000f3fe60806040526004361061015f5760003560e01c80637916692c116100c05780638da5cb5b11610074578063d53175b711610059578063d53175b7146103c3578063f2fde38b146103e3578063f8a7e7911461040357600080fd5b80638da5cb5b1461035c578063ca55d6e4146103a357600080fd5b806384b0196e116100a557806384b0196e146102e6578063898c2bd71461030e5780638d5f464d1461033c57600080fd5b80637916692c146102965780637f4e4849146102c357600080fd5b80634f2f2ae111610117578063715018a6116100fc578063715018a614610241578063743790ed1461025657806375b83e5e1461027657600080fd5b80634f2f2ae1146102015780636608ef421461022157600080fd5b8063077f224a11610148578063077f224a146101ae5780630b07a3d1146101ce57806348158649146101ee57600080fd5b806301ffc9a714610164578063061e960814610199575b600080fd5b34801561017057600080fd5b5061018461017f3660046128d3565b610423565b60405190151581526020015b60405180910390f35b6101ac6101a7366004612af1565b6104bc565b005b3480156101ba57600080fd5b506101ac6101c9366004612b53565b610817565b3480156101da57600080fd5b506101ac6101e9366004612bcc565b610977565b6101ac6101fc366004612be5565b6109d4565b34801561020d57600080fd5b506101ac61021c366004612c73565b610e74565b34801561022d57600080fd5b506101ac61023c366004612c9f565b610f76565b34801561024d57600080fd5b506101ac611134565b34801561026257600080fd5b506101ac610271366004612ce9565b611148565b34801561028257600080fd5b506101ac610291366004612bcc565b611223565b3480156102a257600080fd5b506102b66102b1366004612bcc565b61127d565b6040516101909190612d15565b3480156102cf57600080fd5b506102d8611364565b604051908152602001610190565b3480156102f257600080fd5b506102fb611373565b6040516101909796959493929190612de2565b34801561031a57600080fd5b5061032e610329366004612e96565b61146f565b604051610190929190612eb2565b34801561034857600080fd5b506102b6610357366004612bcc565b6114b2565b34801561036857600080fd5b507f9016d09d72d40fdae2fd8ceac6b6234c7706214fd39c1cd1e609a0528c199300546040516001600160a01b039091168152602001610190565b3480156103af57600080fd5b506101ac6103be366004612f14565b611504565b3480156103cf57600080fd5b506101ac6103de366004612f14565b6115ad565b3480156103ef57600080fd5b506101ac6103fe366004612f36565b611605565b34801561040f57600080fd5b506101ac61041e366004612e96565b61165c565b60007fffffffff0000000000000000000000000000000000000000000000000000000082167f88ecd0bd0000000000000000000000000000000000000000000000000000000014806104b657507f01ffc9a7000000000000000000000000000000000000000000000000000000007fffffffff000000000000000000000000000000000000000000000000000000008316145b92915050565b6104c461185f565b6104d182608001516118e0565b6000806104dd8561193b565b606080870151908201519294509092506bffffffffffffffffffffffff80821690831610610554576040517fed2c5af90000000000000000000000000000000000000000000000000000000081526bffffffffffffffffffffffff9283166004820152911660248201526044015b60405180910390fd5b50506080808501519082015190811461058357604051632d2a698160e21b815260040161054b91815260200190565b5061058e8484611975565b84826105fb57604080517f76fcd6d60000000000000000000000000000000000000000000000000000000081528251600482015260208301516001600160a01b0316602482015290820151604482015260608201516064820152608090910151608482015260a40161054b565b50600061060b8560800151611c09565b6004810154608087015191925060ff16610654576040517f35b79ca400000000000000000000000000000000000000000000000000000000815260040161054b91815260200190565b5060a085015142811015610697576040517f697d517d00000000000000000000000000000000000000000000000000000000815260040161054b91815260200190565b508460400151856080015186600001516001600160a01b03167f6753198d54b2e4642b1a6e2511b6c7431bd7230eb4733b64fcd12dbf3dc30a07886040516106df9190612f51565b60405180910390a46006810154156107e6576006810154348181101561073a576040517f58c72c450000000000000000000000000000000000000000000000000000000081526004810192909252602482015260440161054b565b5050600061076f7f9016d09d72d40fdae2fd8ceac6b6234c7706214fd39c1cd1e609a0528c199300546001600160a01b031690565b60068301546040516001600160a01b039290921691600081818185875af1925050503d80600081146107bd576040519150601f19603f3d011682016040523d82523d6000602084013e6107c2565b606091505b50509050806107e4576040516328e7763f60e01b815260040160405180910390fd5b505b50505061081260017f9b779b17422d0df92223018b32b4d1fa46e071723d6817e2486d003becc55f0055565b505050565b7ff0c57e16840df040f15088dc2f81fe391c3923bec73e23a9662efc9c229c6a00805468010000000000000000810460ff16159067ffffffffffffffff166000811580156108625750825b905060008267ffffffffffffffff16600114801561087f5750303b155b90508115801561088d575080155b156108c4576040517ff92ee8a900000000000000000000000000000000000000000000000000000000815260040160405180910390fd5b84547fffffffffffffffffffffffffffffffffffffffffffffffff0000000000000000166001178555831561090f57845468ff00000000000000001916680100000000000000001785555b61091886611c38565b6109228888611c49565b831561096d57845468ff000000000000000019168555604051600181527fc7f505b2f371ae2175ee4913f4499e1f2633a7b5936321eed1cdaeb6115181d29060200160405180910390a15b5050505050505050565b61097f611c5b565b610988816118e0565b600061099382611c09565b60048101805460ff1916600117905560405190915082907f12ba12d5905656d674e5e6eb43518e8037aa5c2d412275fed1d6c87b3579f8f490600090a25050565b6109dc61185f565b6109e984608001516118e0565b6040805160a08082018352600080835260208084018290528385018290526060808501839052608094850183905285519384018652828452838201838152848701848152918501848152858701859052968b015190965293890151835288015190925286516001600160a01b031690925280610a648361193b565b9150915081158190610a8a576040516334bc6c5160e11b815260040161054b9190612f51565b5050600060208301819052905080610aa18361193b565b9150915081158190610ac7576040516334bc6c5160e11b815260040161054b9190612f51565b5050600060608301819052905080610ade8361193b565b9150915081158190610b04576040516334bc6c5160e11b815260040161054b9190612f51565b50505050610b128484611975565b6000610b218560800151611c09565b9050600080610b2f8561193b565b91509150600082610b41576000610b47565b60028401545b9050600083610b57576000610b5d565b60038501545b6001860154610b6c9190612fc1565b9050803481811015610bb3576040517f58c72c450000000000000000000000000000000000000000000000000000000081526004810192909252602482015260440161054b565b5060009050610bc28334612fc1565b90506000610bf77f9016d09d72d40fdae2fd8ceac6b6234c7706214fd39c1cd1e609a0528c199300546001600160a01b031690565b6001600160a01b03168260405160006040518083038185875af1925050503d8060008114610c41576040519150601f19603f3d011682016040523d82523d6000602084013e610c46565b606091505b5050905080610c68576040516328e7763f60e01b815260040160405180910390fd5b508415610dfb57895184516001600160a01b03918216911603610cb7576040517f158f8ec200000000000000000000000000000000000000000000000000000000815260040160405180910390fd5b8351604080517f216da2d1b8943b28c3c65d1a24b58fdf6dfd051d8f0667966ebf5d8ae37ceb7660208201526001600160a01b0390921682820152805180830382018152606090920190528451610d119082908a90611ccf565b610d47576040517fd1cc120200000000000000000000000000000000000000000000000000000000815260040160405180910390fd5b84516040516000916001600160a01b03169086908381818185875af1925050503d8060008114610d93576040519150601f19603f3d011682016040523d82523d6000602084013e610d98565b606091505b5050905080610dba576040516328e7763f60e01b815260040160405180910390fd5b505089608001517fe15b8c6c90311f7f1ef7acd0c591854454b7ce3e8f9b781b840bddb4b2df2136858c604051610df2929190612fd4565b60405180910390a25b610e058a87611cfa565b85546040517fbe3ff53fa4b2c981ecee65725c32db419428aa34c21d80a35e2f62295b9ffaf190610e37908d90612f51565b60405180910390a2505050505050610e6e60017f9b779b17422d0df92223018b32b4d1fa46e071723d6817e2486d003becc55f0055565b50505050565b610e7c611c5b565b610e85816118e0565b6000610e9082611c09565b9050600080610e9f8686611d25565b9092509050858583610ee6576040517f7b74c8910000000000000000000000000000000000000000000000000000000081526004810192909252602482015260440161054b565b505060018301548690869080841115610f235760405163555a499960e11b815260048101939093526024830191909152604482015260640161054b565b5050506002830186905560038301859055604080518781526020810187905285917e640530575cb3beb0ff2a19a68ca7e85232d0defd808bb6945c8250a0e6c828910160405180910390a2505050505050565b610f7e611c5b565b856001600160a01b038116610fcb576040517fc4124c060000000000000000000000000000000000000000000000000000000081526001600160a01b03909116600482015260240161054b565b50610fd583611d4e565b600190610ff6576040516302a4083360e41b815260040161054b919061309e565b5061100083611d6d565b83901561103c576040517f143dc3f800000000000000000000000000000000000000000000000000000000815260040161054b91815260200190565b5060008061104a8484611d25565b9092509050838383611091576040517f7b74c8910000000000000000000000000000000000000000000000000000000081526004810192909252602482015260440161054b565b508490508388808411156110c95760405163555a499960e11b815260048101939093526024830191909152604482015260640161054b565b5050506110da888888888888611d8d565b6040805187815260208101869052908101849052859088906001600160a01b038b16907fffc21a23b715653050f8085f1c0b2ad389452156c248d4483aa814cb417541309060600160405180910390a45050505050505050565b61113c611c5b565b6111466000611e49565b565b611150611c5b565b611159826118e0565b600061116483611c09565b9050816001600160a01b0381166111b3576040517fc4124c060000000000000000000000000000000000000000000000000000000081526001600160a01b03909116600482015260240161054b565b506004810180547fffffffffffffffffffffff0000000000000000000000000000000000000000ff166101006001600160a01b0385169081029190911790915560405184907fd41d966d7fbc3eb366c5a0e0abea2aa1b2ceba4b78ee1e0314bf47dfb19011f290600090a3505050565b61122b611c5b565b611234816118e0565b600061123f82611c09565b60048101805460ff1916905560405190915082907f3e326791c535b99fa4690e49e159504f5930c05068dce433b45279165d51f73890600090a25050565b6040805161012081018252600080825260208201819052918101829052606081018290526080810182905260a0810182905260c0810182905260e081018290526101008101829052906112cf83611c09565b6040805161012081018252825481526001830154602082015260028301549181019190915260038201546060820152600482015460ff8116151560808301526101008082046001600160a01b031660a0840152750100000000000000000000000000000000000000000090910462ffffff1660c0830152600583015460e0830152600690920154918101919091529392505050565b600061136e611ec7565b905090565b600060608082808083817fa16a46d94261c7517cc8ff89f61c0ce93598e3c849801011dee649a6a557d10080549091501580156113b257506001810154155b611418576040517f08c379a000000000000000000000000000000000000000000000000000000000815260206004820152601560248201527f4549503731323a20556e696e697469616c697a65640000000000000000000000604482015260640161054b565b611420611edc565b611428611fb1565b604080516000808252602082019092527f0f000000000000000000000000000000000000000000000000000000000000009c939b5091995046985030975095509350915050565b6040805160c081018252600080825260208201819052918101829052606081018290526080810182905260a081018290526114a98361193b565b91509150915091565b6040805161012081018252600080825260208201819052918101829052606081018290526080810182905260a0810182905260c0810182905260e081018290526101008101829052906112cf83612002565b61150c611c5b565b611515826118e0565b600061152083611c09565b60028101546003820154919250908361153983836130c6565b111582828690919261156f5760405163555a499960e11b815260048101939093526024830191909152604482015260640161054b565b50505060018301849055604051849086907f850b5f3a1167567889ff23ccba717cf63dc8e533b3ce66ebe7f9036ea50d397490600090a35050505050565b6115b5611c5b565b6115be816118e0565b60006115c982611c09565b60068101849055604051909150839083907ff467a58694cff42eecfd79cfba75e4ff7d2f044dac2f3702a4c2cd782a5e351190600090a3505050565b61160d611c5b565b6001600160a01b038116611650576040517f1e4fbdf70000000000000000000000000000000000000000000000000000000081526000600482015260240161054b565b61165981611e49565b50565b611664611c5b565b805161166f906118e0565b600061167e8260000151611c09565b600060808401819052909150806116948461146f565b9150915081849061170657604080517f76fcd6d60000000000000000000000000000000000000000000000000000000081528251600482015260208301516001600160a01b0316602482015290820151604482015260608201516064820152608090910151608482015260a40161054b565b5080516001600160a01b039081166000908152600985016020908152604080832083905580850180518452600788018352818420805473ffffffffffffffffffffffffffffffffffffffff1916905580518452600b88018352818420849055828601518452600a8801835281842084905585519094168352600c87018252808320839055925182526008860190529081208054600192906117b69084906bffffffffffffffffffffffff166130d9565b92506101000a8154816bffffffffffffffffffffffff02191690836bffffffffffffffffffffffff1602179055508260000160050160008154809291906117fc906130fd565b9190505550806040015181600001516001600160a01b031684600001600001547fee56310501c49a670570d1edf7adfbe3fb90b4ae92c631470d3d4b059b7ab7a7846020015160405161185191815260200190565b60405180910390a450505050565b7f9b779b17422d0df92223018b32b4d1fa46e071723d6817e2486d003becc55f0080547ffffffffffffffffffffffffffffffffffffffffffffffffffffffffffffffffe016118da576040517f3ee5aeb500000000000000000000000000000000000000000000000000000000815260040160405180910390fd5b60029055565b6118e981611d4e565b819061190b57604051632d2a698160e21b815260040161054b91815260200190565b5061191581611d6d565b819061193757604051632d2a698160e21b815260040161054b91815260200190565b5050565b6040805160c081018252600080825260208201819052918101829052606081018290526080810182905260a081018290526114a98361201e565b6040805160a0808201835260008083526020808401829052838501829052606080850183905260809485018390528551938401865282845283820183815284870184815291850184815285870194909452958801519283905293870151835286015190925284516001600160a01b03169092526119f190611d4e565b600090611a12576040516302a4083360e41b815260040161054b919061309e565b508051611a1e90611d4e565b600190611a3f576040516302a4083360e41b815260040161054b919061309e565b5060208101516002906001600160a01b0316611a6f576040516302a4083360e41b815260040161054b919061309e565b506000611a7f8260000151611c09565b6004810154815491925060009060ff16611ad0576040517f26ace5c300000000000000000000000000000000000000000000000000000000815260048101929092521515602482015260440161054b565b505060a0840151428111611b13576040517f697d517d00000000000000000000000000000000000000000000000000000000815260040161054b91815260200190565b5060007f8fbd59cffaeee96fb33d5c90d61a05b296d2974d6b6a6962a14125fd85a1b4c48560200151866040015187608001518860a001518960600151604051602001611b969695949392919095865260208601949094526040850192909252606084015260808301526bffffffffffffffffffffffff1660a082015260c00190565b6040516020818303038152906040529050611bcc81858460000160040160019054906101000a90046001600160a01b0316611ccf565b611c02576040517fd1cc120200000000000000000000000000000000000000000000000000000000815260040160405180910390fd5b5050505050565b600080611c146121c8565b9050806000611c2285611d6d565b8152602001908152602001600020915050919050565b611c406121f6565b6116598161225d565b611c516121f6565b6119378282612265565b33611c8d7f9016d09d72d40fdae2fd8ceac6b6234c7706214fd39c1cd1e609a0528c199300546001600160a01b031690565b6001600160a01b031614611146576040517f118cdaa700000000000000000000000000000000000000000000000000000000815233600482015260240161054b565b600080611ce285805190602001206122d8565b9050611cef838286612320565b9150505b9392505050565b611d048183612382565b6001816000016005016000828254611d1c91906130c6565b90915550505050565b60008083830184811015611d40576000809250925050611d47565b6001925090505b9250929050565b600081600003611d6057506000919050565b506001919050565b919050565b600080611d786121c8565b60009384526001016020525050604090205490565b6000611d976121c8565b9050600081600201546001611dac91906130c6565b60008181526020849052604081206004810180547fffffffffffffffffffffff0000000000000000000000000000000000000000ff166101006001600160a01b038e1602179055600181018a9055878155600280820188905560038201879055600682018a905585018054939450909291611e2683613114565b909155505050600094855260019091016020526040909320929092555050505050565b7f9016d09d72d40fdae2fd8ceac6b6234c7706214fd39c1cd1e609a0528c199300805473ffffffffffffffffffffffffffffffffffffffff1981166001600160a01b03848116918217845560405192169182907f8be0079c531659141344cd1fd0a4f28419497f9722a3daafe3b4186f6b6457e090600090a3505050565b600080611ed26121c8565b6002015492915050565b7fa16a46d94261c7517cc8ff89f61c0ce93598e3c849801011dee649a6a557d10280546060917fa16a46d94261c7517cc8ff89f61c0ce93598e3c849801011dee649a6a557d10091611f2d9061312e565b80601f0160208091040260200160405190810160405280929190818152602001828054611f599061312e565b8015611fa65780601f10611f7b57610100808354040283529160200191611fa6565b820191906000526020600020905b815481529060010190602001808311611f8957829003601f168201915b505050505091505090565b7fa16a46d94261c7517cc8ff89f61c0ce93598e3c849801011dee649a6a557d10380546060917fa16a46d94261c7517cc8ff89f61c0ce93598e3c849801011dee649a6a557d10091611f2d9061312e565b60008061200d6121c8565b600093845260205250506040902090565b6040805160c081018252600080825260208201819052918101829052606081018290526080810182905260a0810182905260208301516001600160a01b031615801561206c57506060830151155b801561207a57506040830151155b156120b95750506040805160c081018252600080825260208201819052918101829052606081018290526080810182905260a081018290529092909150565b60006120c36121c8565b845160009081526001820160208181526040808420548452908490528220608088015193945092849183918290156120ff578960800151612102565b89515b815260200190815260200160002054815260200190815260200160002090506000806001600160a01b031687602001516001600160a01b03161461214b575060208601516121b1565b60608701511561217a5750606086015160009081526007830160205260409020546001600160a01b03166121b1565b6040870151156121b157506040808701516000908152600a8401602090815282822054825260078501905220546001600160a01b03165b6121bb8183612477565b9550955050505050915091565b6000806104b660017f04bdbdc4307cce9e40fe195fd3bd1e3c1c204492d1ed6f443150de8aa0bc48d0612fc1565b7ff0c57e16840df040f15088dc2f81fe391c3923bec73e23a9662efc9c229c6a005468010000000000000000900460ff16611146576040517fd7e6bcf800000000000000000000000000000000000000000000000000000000815260040160405180910390fd5b61160d6121f6565b61226d6121f6565b7fa16a46d94261c7517cc8ff89f61c0ce93598e3c849801011dee649a6a557d1007fa16a46d94261c7517cc8ff89f61c0ce93598e3c849801011dee649a6a557d1026122b984826131af565b50600381016122c883826131af565b5060008082556001909101555050565b60006104b66122e5612545565b836040517f19010000000000000000000000000000000000000000000000000000000000008152600281019290925260228201526042902090565b600080600061232f858561254f565b509092509050600081600381111561234957612349613088565b1480156123675750856001600160a01b0316826001600160a01b0316145b80612378575061237886868661259c565b9695505050505050565b6040818101805183516001600160a01b03908116600090815260098701602090815285822093909355855184518252600788018452858220805473ffffffffffffffffffffffffffffffffffffffff19169190931617909155818501805184518352600b8801845285832055835190518252600a87018352848220559151825260088501905290812080546001929061242a9084906bffffffffffffffffffffffff166130d9565b82546bffffffffffffffffffffffff9182166101009390930a92830291909202199091161790555060a081015190516001600160a01b03166000908152600c909201602052604090912055565b6040805160c08082018352600080835260208084018290528385018290526060808501839052608080860184905260a0808701859052875195860188528486528584018581528689018681529387018681529287018681529187018681526001600160a01b038c1680885260098c0187528a8820548087528852600b8c0187528a8820549092528451875260088b018652898720546bffffffffffffffffffffffff1690935280875289549091528452600c88019092529482205490529251611d4057600092509050611d47565b600061136e6126be565b600080600083516041036125895760208401516040850151606086015160001a61257b88828585612732565b955095509550505050612595565b50508151600091506002905b9250925092565b6000806000856001600160a01b031685856040516024016125be92919061326e565b60408051601f198184030181529181526020820180517bffffffffffffffffffffffffffffffffffffffffffffffffffffffff167f1626ba7e0000000000000000000000000000000000000000000000000000000017905251612621919061328f565b600060405180830381855afa9150503d806000811461265c576040519150601f19603f3d011682016040523d82523d6000602084013e612661565b606091505b509150915081801561267557506020815110155b8015612378575080517f1626ba7e00000000000000000000000000000000000000000000000000000000906126b390830160209081019084016132ab565b149695505050505050565b60007f8b73c3c69bb8fe3d512ecc4cf759cc79239f7b179b0ffacaa9a75d522b39400f6126e9612801565b6126f161287d565b60408051602081019490945283019190915260608201524660808201523060a082015260c00160405160208183030381529060405280519060200120905090565b600080807f7fffffffffffffffffffffffffffffff5d576e7357a4501ddfe92f46681b20a084111561276d57506000915060039050826127f7565b604080516000808252602082018084528a905260ff891692820192909252606081018790526080810186905260019060a0016020604051602081039080840390855afa1580156127c1573d6000803e3d6000fd5b5050604051601f1901519150506001600160a01b0381166127ed575060009250600191508290506127f7565b9250600091508190505b9450945094915050565b60007fa16a46d94261c7517cc8ff89f61c0ce93598e3c849801011dee649a6a557d1008161282d611edc565b80519091501561284557805160209091012092915050565b81548015612854579392505050565b7fc5d2460186f7233c927e7db2dcc703c0e500b653ca82273b7bfad8045d85a470935050505090565b60007fa16a46d94261c7517cc8ff89f61c0ce93598e3c849801011dee649a6a557d100816128a9611fb1565b8051909150156128c157805160209091012092915050565b60018201548015612854579392505050565b6000602082840312156128e557600080fd5b81357fffffffff0000000000000000000000000000000000000000000000000000000081168114611cf357600080fd5b634e487b7160e01b600052604160045260246000fd5b60405160c0810167ffffffffffffffff8111828210171561294e5761294e612915565b60405290565b80356001600160a01b0381168114611d6857600080fd5b600060a0828403121561297d57600080fd5b60405160a0810167ffffffffffffffff811182821017156129a0576129a0612915565b604052823581529050806129b660208401612954565b60208201526040838101359082015260608084013590820152608092830135920191909152919050565b600060c082840312156129f257600080fd5b6129fa61292b565b9050612a0582612954565b8152602082810135908201526040808301359082015260608201356bffffffffffffffffffffffff81168114612a3a57600080fd5b60608201526080828101359082015260a09182013591810191909152919050565b600082601f830112612a6c57600080fd5b81356020830160008067ffffffffffffffff841115612a8d57612a8d612915565b50604051601f19601f85018116603f0116810181811067ffffffffffffffff82111715612abc57612abc612915565b604052838152905080828401871015612ad457600080fd5b838360208301376000602085830101528094505050505092915050565b60008060006101808486031215612b0757600080fd5b612b11858561296b565b9250612b208560a086016129e0565b915061016084013567ffffffffffffffff811115612b3d57600080fd5b612b4986828701612a5b565b9150509250925092565b600080600060608486031215612b6857600080fd5b833567ffffffffffffffff811115612b7f57600080fd5b612b8b86828701612a5b565b935050602084013567ffffffffffffffff811115612ba857600080fd5b612bb486828701612a5b565b925050612bc360408501612954565b90509250925092565b600060208284031215612bde57600080fd5b5035919050565b6000806000806101a08587031215612bfc57600080fd5b612c0686866129e0565b935060c085013567ffffffffffffffff811115612c2257600080fd5b612c2e87828801612a5b565b935050612c3e8660e0870161296b565b915061018085013567ffffffffffffffff811115612c5b57600080fd5b612c6787828801612a5b565b91505092959194509250565b600080600060608486031215612c8857600080fd5b505081359360208301359350604090920135919050565b60008060008060008060c08789031215612cb857600080fd5b612cc187612954565b9860208801359850604088013597606081013597506080810135965060a00135945092505050565b60008060408385031215612cfc57600080fd5b82359150612d0c60208401612954565b90509250929050565b600061012082019050825182526020830151602083015260408301516040830152606083015160608301526080830151151560808301526001600160a01b0360a08401511660a083015260c0830151612d7560c084018262ffffff169052565b5060e083015160e083015261010083015161010083015292915050565b60005b83811015612dad578181015183820152602001612d95565b50506000910152565b60008151808452612dce816020860160208601612d92565b601f01601f19169290920160200192915050565b7fff000000000000000000000000000000000000000000000000000000000000008816815260e060208201526000612e1d60e0830189612db6565b8281036040840152612e2f8189612db6565b606084018890526001600160a01b038716608085015260a0840186905283810360c08501528451808252602080870193509091019060005b81811015612e85578351835260209384019390920191600101612e67565b50909b9a5050505050505050505050565b600060a08284031215612ea857600080fd5b611cf3838361296b565b821515815260e08101611cf360208301846001600160a01b03815116825260208101516020830152604081015160408301526bffffffffffffffffffffffff60608201511660608301526080810151608083015260a081015160a08301525050565b60008060408385031215612f2757600080fd5b50508035926020909101359150565b600060208284031215612f4857600080fd5b611cf382612954565b60c081016104b682846001600160a01b03815116825260208101516020830152604081015160408301526bffffffffffffffffffffffff60608201511660608301526080810151608083015260a081015160a08301525050565b634e487b7160e01b600052601160045260246000fd5b818103818111156104b6576104b6612fab565b610180810161302f82856001600160a01b03815116825260208101516020830152604081015160408301526bffffffffffffffffffffffff60608201511660608301526080810151608083015260a081015160a08301525050565b82516001600160a01b031660c0830152602083015160e0830152604083015161010083015260608301516bffffffffffffffffffffffff16610120830152608083015161014083015260a0830151610160830152611cf3565b634e487b7160e01b600052602160045260246000fd5b60208101600383106130c057634e487b7160e01b600052602160045260246000fd5b91905290565b808201808211156104b6576104b6612fab565b6bffffffffffffffffffffffff81811683821601908111156104b6576104b6612fab565b60008161310c5761310c612fab565b506000190190565b6000600019820361312757613127612fab565b5060010190565b600181811c9082168061314257607f821691505b60208210810361316257634e487b7160e01b600052602260045260246000fd5b50919050565b601f82111561081257806000526020600020601f840160051c8101602085101561318f5750805b601f840160051c820191505b81811015611c02576000815560010161319b565b815167ffffffffffffffff8111156131c9576131c9612915565b6131dd816131d7845461312e565b84613168565b6020601f82116001811461321157600083156131f95750848201515b600019600385901b1c1916600184901b178455611c02565b600084815260208120601f198516915b828110156132415787850151825560209485019460019092019101613221565b508482101561325f5786840151600019600387901b60f8161c191681555b50505050600190811b01905550565b8281526040602082015260006132876040830184612db6565b949350505050565b600082516132a1818460208701612d92565b9190910192915050565b6000602082840312156132bd57600080fd5b505191905056fea26469706673582212203a3b384d606850c8c0a04f9e38889c5848761d68325bdda4205f156d7dd59bb764736f6c634300081c0033",
  "devdoc": {
    "custom:security-contact": "sirt@peeramid.xyz",
    "details": "This contract implements various functions related to the management of domain names and registration records.",
    "errors": {
      "InvalidInitialization()": [
        {
          "details": "The contract is already initialized."
        }
      ],
      "NotInitializing()": [
        {
          "details": "The contract is not initializing."
        }
      ],
      "OwnableInvalidOwner(address)": [
        {
          "details": "The owner is not a valid owner account. (eg. `address(0)`)"
        }
      ],
      "OwnableUnauthorizedAccount(address)": [
        {
          "details": "The caller account is not authorized to perform an operation."
        }
      ],
      "ReentrancyGuardReentrantCall()": [
        {
          "details": "Unauthorized reentrant call."
        }
      ]
    },
    "events": {
      "DomainActivated(bytes32)": {
        "details": "Emitted when a domain is activated.",
        "params": {
          "domainName": "The name of the activated domain."
        }
      },
      "DomainDeactivated(bytes32)": {
        "details": "Emitted when a domain is deactivated.",
        "params": {
          "domainName": "The name of the deactivated domain."
        }
      },
      "DomainFeeChanged(bytes32,uint256)": {
        "details": "Emitted when the fee for a domain is changed.",
        "params": {
          "domainName": "The name of the domain.",
          "newFee": "The new fee for the domain."
        }
      },
      "EIP712DomainChanged()": {
        "details": "MAY be emitted to signal that the domain could have changed."
      },
      "Initialized(uint64)": {
        "details": "Triggered when the contract has been initialized or reinitialized."
      },
      "InitializedDomain(address,uint256,bytes32,uint256,uint256,uint256)": {
        "details": "Initializes a new domain with the specified parameters.",
        "params": {
          "domainName": "The name of the domain.",
          "fee": "The fee required for registration in the domain.",
          "referralDiscount": "The discount for referrals in the domain.",
          "referrerReward": "The reward for referring new registrations to the domain.",
          "registrar": "The address of the registrar for the domain."
        }
      },
      "ReferralProgramChanged(bytes32,uint256,uint256)": {
        "details": "Emitted when the referral program for a domain is changed.",
        "params": {
          "discount": "The referral discount amount.",
          "domainName": "The domain name.",
          "reward": "The referral reward amount."
        }
      },
      "Referred((address,bytes32,bytes32,uint96,bytes32,uint256),(address,bytes32,bytes32,uint96,bytes32,uint256),bytes32)": {
        "details": "Emitted when a user is referred.",
        "params": {
          "domainName": "The domain name.",
          "newRecord": "The new record.",
          "refferrer": "The record of the referrer."
        }
      },
      "Registered(bytes32,(address,bytes32,bytes32,uint96,bytes32,uint256))": {
        "details": "Emitted when a domain is registered.",
        "params": {
          "NewRecord": "The new record.",
          "domainName": "The domain name."
        }
      },
      "RegistrarChanged(bytes32,address)": {
        "details": "Emitted when a registrar change is requested for a domain.",
        "params": {
          "domainName": "The name of the domain.",
          "registrar": "The address of the new registrar."
        }
      },
      "RenewalFeeChanged(bytes32,uint256)": {
        "details": "Emitted when a domain renewal fee is changed.",
        "params": {
          "domainName": "The domain name.",
          "newFee": "The new renewal fee."
        }
      },
      "Renewed(address,bytes32,bytes32,(address,bytes32,bytes32,uint96,bytes32,uint256))": {
        "details": "Emitted when a user record is renewed.",
        "params": {
          "domainName": "The domain name.",
          "id": "The ID of the record.",
          "newRecord": "The new record.",
          "wallet": "The address of the wallet."
        }
      },
      "fundsWithdawn(uint256,address)": {
        "details": "returns price for registering name"
      },
      "nameDeleted(bytes32,address,bytes32,bytes32)": {
        "details": "Emitted when a name is deleted.",
        "params": {
          "domainName": "The domain name.",
          "id": "The ID of the name.",
          "name": "The name.",
          "wallet": "The address of the wallet."
        }
      }
    },
    "kind": "dev",
    "methods": {
      "activateDomain(bytes32)": {
        "details": "Activates LibMultipass.Domain name Requirements:  msg.sender is Owner  Emits an {DomainActivated} event."
      },
      "changeFee(bytes32,uint256)": {
        "details": "Changes registrar address Requirements:  msg.sender is Owner  Emits an {DomainFeeChanged} event."
      },
      "changeReferralProgram(uint256,uint256,bytes32)": {
        "details": "executes all pending changes to LibMultipass.Domain that fulfill TTL Requirements:  domainName must be set  referrerFeeShare+referralDiscount cannot be larger than 2^32  Emits an {ReferralProgramChangeRequested} event."
      },
      "changeRegistrar(bytes32,address)": {
        "details": "Changes registrar address Requirements:  msg.sender is Owner  Emits an {RegistrarChangeRequested} event."
      },
      "changeRenewalFee(uint256,bytes32)": {
        "details": "changes renewal fee for domain Requirements:  domainName must be set  fee must be set  Emits an {RenewalFeeChangeRequested} event."
      },
      "deactivateDomain(bytes32)": {
        "details": "Deactivates LibMultipass.Domain name Deactivated LibMultipass.Domain cannot mutate names and will return zeros Requirements:  msg.sender is Owner OR registrar  Emits an {DomainDeactivated} event."
      },
      "deleteName((bytes32,address,bytes32,bytes32,bytes32))": {
        "details": "deletes name Requirements:  msg.sender is Owner  Emits an {DomainTTLChangeRequested} event."
      },
      "eip712Domain()": {
        "details": "See {IERC-5267}."
      },
      "getContractState()": {
        "details": "returns contract state variables",
        "returns": {
          "_0": "(s_numDomains)"
        }
      },
      "getDomainState(bytes32)": {
        "details": "returns LibMultipass.Domain state variables",
        "params": {
          "domainName": "name of the LibMultipass.Domain"
        },
        "returns": {
          "_0": "(name, fee, referrerReward, referralDiscount, isActive, registrar, ttl, registerSize)"
        }
      },
      "getDomainStateById(uint256)": {
        "details": "Retrieves the domain state by its ID.",
        "params": {
          "id": "The ID of the domain."
        },
        "returns": {
          "_0": "The domain state as a `LibMultipass.Domain` struct."
        }
      },
      "initialize(string,string,address)": {
        "params": {
          "name": "The name to initialize the contract with.",
          "owner": "The address of the owner of the contract.",
          "version": "The version to initialize the contract with."
        }
      },
      "initializeDomain(address,uint256,uint256,bytes32,uint256,uint256)": {
        "details": "Initializes new LibMultipass.Domain and configures it's parameters Requirements:  registrar is not zero  domainName is not empty  domainIndex is either zero(auto assign) or can be one of preoccupied LibMultipass.Domain names  domainName does not exist yet  onlyOwner  referrerReward+referralDiscount cannot be larger than fee",
        "params": {
          "domainName": "name of LibMultipass.Domain",
          "fee": "fee in base currency of network",
          "referralDiscount": "referral discount in base currency of network  Emits an {InitializedDomain} event.",
          "referrerReward": "referral fee share in base currency of network",
          "registrar": "address of registrar"
        }
      },
      "owner()": {
        "details": "Returns the address of the current owner."
      },
      "register((address,bytes32,bytes32,uint96,bytes32,uint256),bytes,(bytes32,address,bytes32,bytes32,bytes32),bytes)": {
        "details": "registers new name under LibMultipass.Domain Requirements:  all arguments must be set  domainName must be active resolveRecord for given arguments should return no LibMultipass.Record  Emits an {registered} event."
      },
      "renewRecord((bytes32,address,bytes32,bytes32,bytes32),(address,bytes32,bytes32,uint96,bytes32,uint256),bytes)": {
        "params": {
          "query": "name query",
          "record": "new record",
          "registrarSignature": "registrar signature"
        }
      },
      "renounceOwnership()": {
        "details": "Leaves the contract without owner. It will not be possible to call `onlyOwner` functions. Can only be called by the current owner. NOTE: Renouncing ownership will leave the contract without an owner, thereby disabling any functionality that is only available to the owner."
      },
      "resolveRecord((bytes32,address,bytes32,bytes32,bytes32))": {
        "details": "Retrieves the resolved record for a given name query.",
        "params": {
          "query": "The name query to resolve."
        },
        "returns": {
          "_0": "A boolean indicating whether the record was found, and the resolved record."
        }
      },
      "supportsInterface(bytes4)": {
        "details": "Checks if the contract supports a given interface.",
        "params": {
          "interfaceId": "The interface identifier, as specified in ERC-165."
        },
        "returns": {
          "_0": "bool True if the contract supports the given interface, false otherwise."
        }
      },
      "transferOwnership(address)": {
        "details": "Transfers ownership of the contract to a new account (`newOwner`). Can only be called by the current owner."
      }
    },
    "title": "Multipass",
    "version": 1
  },
  "userdoc": {
    "kind": "user",
    "methods": {
      "initialize(string,string,address)": {
        "notice": "Initializes the contract with a name, version, and owner address. This function can only be called once due to the `initializer` modifier."
      },
      "renewRecord((bytes32,address,bytes32,bytes32,bytes32),(address,bytes32,bytes32,uint96,bytes32,uint256),bytes)": {
        "notice": "renews record for given query"
      }
    },
    "version": 1
  },
  "storageLayout": {
    "storage": [],
    "types": null
  }
}