{
  "address": "0x7Aa92eBC8ab8F834db623ee2A80da3C7169deEa4",
  "abi": [
    {
      "inputs": [],
      "stateMutability": "nonpayable",
      "type": "constructor"
    },
    {
      "inputs": [],
      "name": "InvalidInitialization",
      "type": "error"
    },
    {
      "inputs": [],
      "name": "NotInitializing",
      "type": "error"
    },
    {
      "inputs": [
        {
          "internalType": "address",
          "name": "owner",
          "type": "address"
        }
      ],
      "name": "OwnableInvalidOwner",
      "type": "error"
    },
    {
      "inputs": [
        {
          "internalType": "address",
          "name": "account",
          "type": "address"
        }
      ],
      "name": "OwnableUnauthorizedAccount",
      "type": "error"
    },
    {
      "inputs": [],
      "name": "ReentrancyGuardReentrantCall",
      "type": "error"
    },
    {
      "inputs": [
        {
          "internalType": "bytes32",
          "name": "domainName",
          "type": "bytes32"
        }
      ],
      "name": "domainNotActive",
      "type": "error"
    },
    {
      "inputs": [
        {
          "internalType": "bytes32",
          "name": "domainName",
          "type": "bytes32"
        }
      ],
      "name": "invalidDomain",
      "type": "error"
    },
    {
      "inputs": [
        {
          "internalType": "uint256",
          "name": "nonce",
          "type": "uint256"
        }
      ],
      "name": "invalidNonce",
      "type": "error"
    },
    {
      "inputs": [
        {
          "internalType": "uint256",
          "name": "old",
          "type": "uint256"
        },
        {
          "internalType": "uint256",
          "name": "newer",
          "type": "uint256"
        }
      ],
      "name": "invalidNonceIncrement",
      "type": "error"
    },
    {
      "inputs": [
        {
          "internalType": "enum IMultipass.InvalidQueryReasons",
          "name": "reason",
          "type": "uint8"
        }
      ],
      "name": "invalidQuery",
      "type": "error"
    },
    {
      "inputs": [
        {
          "internalType": "address",
          "name": "registrar",
          "type": "address"
        }
      ],
      "name": "invalidRegistrar",
      "type": "error"
    },
    {
      "inputs": [],
      "name": "invalidSignature",
      "type": "error"
    },
    {
      "inputs": [
        {
          "internalType": "bytes32",
          "name": "domainName",
          "type": "bytes32"
        },
        {
          "internalType": "bytes32",
          "name": "newName",
          "type": "bytes32"
        }
      ],
      "name": "invalidnameChange",
      "type": "error"
    },
    {
      "inputs": [
        {
          "internalType": "bytes32",
          "name": "name",
          "type": "bytes32"
        },
        {
          "internalType": "bool",
          "name": "isActive",
          "type": "bool"
        }
      ],
      "name": "isActive",
      "type": "error"
    },
    {
      "inputs": [
        {
          "internalType": "uint256",
          "name": "a",
          "type": "uint256"
        },
        {
          "internalType": "uint256",
          "name": "b",
          "type": "uint256"
        }
      ],
      "name": "mathOverflow",
      "type": "error"
    },
    {
      "inputs": [
        {
          "internalType": "bytes32",
          "name": "name",
          "type": "bytes32"
        }
      ],
      "name": "nameExists",
      "type": "error"
    },
    {
      "inputs": [],
      "name": "paymendFailed",
      "type": "error"
    },
    {
      "inputs": [
        {
          "internalType": "uint256",
          "name": "fee",
          "type": "uint256"
        },
        {
          "internalType": "uint256",
          "name": "value",
          "type": "uint256"
        }
      ],
      "name": "paymentTooLow",
      "type": "error"
    },
    {
      "inputs": [
        {
          "components": [
            {
              "internalType": "address",
              "name": "wallet",
              "type": "address"
            },
            {
              "internalType": "bytes32",
              "name": "name",
              "type": "bytes32"
            },
            {
              "internalType": "bytes32",
              "name": "id",
              "type": "bytes32"
            },
            {
              "internalType": "uint96",
              "name": "nonce",
              "type": "uint96"
            },
            {
              "internalType": "bytes32",
              "name": "domainName",
              "type": "bytes32"
            },
            {
              "internalType": "uint256",
              "name": "validUntil",
              "type": "uint256"
            }
          ],
          "internalType": "struct LibMultipass.Record",
          "name": "newRecord",
          "type": "tuple"
        }
      ],
      "name": "recordExists",
      "type": "error"
    },
    {
      "inputs": [
        {
          "internalType": "uint256",
          "name": "referrerReward",
          "type": "uint256"
        },
        {
          "internalType": "uint256",
          "name": "referralDiscount",
          "type": "uint256"
        },
        {
          "internalType": "uint256",
          "name": "fee",
          "type": "uint256"
        }
      ],
      "name": "referralRewardsTooHigh",
      "type": "error"
    },
    {
      "inputs": [],
      "name": "referredSelf",
      "type": "error"
    },
    {
      "inputs": [
        {
          "internalType": "uint256",
          "name": "signatureDeadline",
          "type": "uint256"
        }
      ],
      "name": "signatureExpired",
      "type": "error"
    },
    {
      "inputs": [
        {
          "components": [
            {
              "internalType": "bytes32",
              "name": "domainName",
              "type": "bytes32"
            },
            {
              "internalType": "address",
              "name": "wallet",
              "type": "address"
            },
            {
              "internalType": "bytes32",
              "name": "name",
              "type": "bytes32"
            },
            {
              "internalType": "bytes32",
              "name": "id",
              "type": "bytes32"
            },
            {
              "internalType": "bytes32",
              "name": "targetDomain",
              "type": "bytes32"
            }
          ],
          "internalType": "struct LibMultipass.NameQuery",
          "name": "query",
          "type": "tuple"
        }
      ],
      "name": "userNotFound",
      "type": "error"
    },
    {
      "anonymous": false,
      "inputs": [
        {
          "indexed": true,
          "internalType": "bytes32",
          "name": "domainName",
          "type": "bytes32"
        }
      ],
      "name": "DomainActivated",
      "type": "event"
    },
    {
      "anonymous": false,
      "inputs": [
        {
          "indexed": true,
          "internalType": "bytes32",
          "name": "domainName",
          "type": "bytes32"
        }
      ],
      "name": "DomainDeactivated",
      "type": "event"
    },
    {
      "anonymous": false,
      "inputs": [
        {
          "indexed": true,
          "internalType": "bytes32",
          "name": "domainName",
          "type": "bytes32"
        },
        {
          "indexed": true,
          "internalType": "uint256",
          "name": "newFee",
          "type": "uint256"
        }
      ],
      "name": "DomainFeeChanged",
      "type": "event"
    },
    {
      "anonymous": false,
      "inputs": [],
      "name": "EIP712DomainChanged",
      "type": "event"
    },
    {
      "anonymous": false,
      "inputs": [
        {
          "indexed": false,
          "internalType": "uint64",
          "name": "version",
          "type": "uint64"
        }
      ],
      "name": "Initialized",
      "type": "event"
    },
    {
      "anonymous": false,
      "inputs": [
        {
          "indexed": true,
          "internalType": "address",
          "name": "registrar",
          "type": "address"
        },
        {
          "indexed": true,
          "internalType": "uint256",
          "name": "fee",
          "type": "uint256"
        },
        {
          "indexed": true,
          "internalType": "bytes32",
          "name": "domainName",
          "type": "bytes32"
        },
        {
          "indexed": false,
          "internalType": "uint256",
          "name": "renewalFee",
          "type": "uint256"
        },
        {
          "indexed": false,
          "internalType": "uint256",
          "name": "referrerReward",
          "type": "uint256"
        },
        {
          "indexed": false,
          "internalType": "uint256",
          "name": "referralDiscount",
          "type": "uint256"
        }
      ],
      "name": "InitializedDomain",
      "type": "event"
    },
    {
      "anonymous": false,
      "inputs": [
        {
          "indexed": true,
          "internalType": "address",
          "name": "previousOwner",
          "type": "address"
        },
        {
          "indexed": true,
          "internalType": "address",
          "name": "newOwner",
          "type": "address"
        }
      ],
      "name": "OwnershipTransferred",
      "type": "event"
    },
    {
      "anonymous": false,
      "inputs": [
        {
          "indexed": true,
          "internalType": "bytes32",
          "name": "domainName",
          "type": "bytes32"
        },
        {
          "indexed": false,
          "internalType": "uint256",
          "name": "reward",
          "type": "uint256"
        },
        {
          "indexed": false,
          "internalType": "uint256",
          "name": "discount",
          "type": "uint256"
        }
      ],
      "name": "ReferralProgramChanged",
      "type": "event"
    },
    {
      "anonymous": false,
      "inputs": [
        {
          "components": [
            {
              "internalType": "address",
              "name": "wallet",
              "type": "address"
            },
            {
              "internalType": "bytes32",
              "name": "name",
              "type": "bytes32"
            },
            {
              "internalType": "bytes32",
              "name": "id",
              "type": "bytes32"
            },
            {
              "internalType": "uint96",
              "name": "nonce",
              "type": "uint96"
            },
            {
              "internalType": "bytes32",
              "name": "domainName",
              "type": "bytes32"
            },
            {
              "internalType": "uint256",
              "name": "validUntil",
              "type": "uint256"
            }
          ],
          "indexed": false,
          "internalType": "struct LibMultipass.Record",
          "name": "refferrer",
          "type": "tuple"
        },
        {
          "components": [
            {
              "internalType": "address",
              "name": "wallet",
              "type": "address"
            },
            {
              "internalType": "bytes32",
              "name": "name",
              "type": "bytes32"
            },
            {
              "internalType": "bytes32",
              "name": "id",
              "type": "bytes32"
            },
            {
              "internalType": "uint96",
              "name": "nonce",
              "type": "uint96"
            },
            {
              "internalType": "bytes32",
              "name": "domainName",
              "type": "bytes32"
            },
            {
              "internalType": "uint256",
              "name": "validUntil",
              "type": "uint256"
            }
          ],
          "indexed": false,
          "internalType": "struct LibMultipass.Record",
          "name": "newRecord",
          "type": "tuple"
        },
        {
          "indexed": true,
          "internalType": "bytes32",
          "name": "domainName",
          "type": "bytes32"
        }
      ],
      "name": "Referred",
      "type": "event"
    },
    {
      "anonymous": false,
      "inputs": [
        {
          "indexed": true,
          "internalType": "bytes32",
          "name": "domainName",
          "type": "bytes32"
        },
        {
          "components": [
            {
              "internalType": "address",
              "name": "wallet",
              "type": "address"
            },
            {
              "internalType": "bytes32",
              "name": "name",
              "type": "bytes32"
            },
            {
              "internalType": "bytes32",
              "name": "id",
              "type": "bytes32"
            },
            {
              "internalType": "uint96",
              "name": "nonce",
              "type": "uint96"
            },
            {
              "internalType": "bytes32",
              "name": "domainName",
              "type": "bytes32"
            },
            {
              "internalType": "uint256",
              "name": "validUntil",
              "type": "uint256"
            }
          ],
          "indexed": false,
          "internalType": "struct LibMultipass.Record",
          "name": "NewRecord",
          "type": "tuple"
        }
      ],
      "name": "Registered",
      "type": "event"
    },
    {
      "anonymous": false,
      "inputs": [
        {
          "indexed": true,
          "internalType": "bytes32",
          "name": "domainName",
          "type": "bytes32"
        },
        {
          "indexed": true,
          "internalType": "address",
          "name": "registrar",
          "type": "address"
        }
      ],
      "name": "RegistrarChanged",
      "type": "event"
    },
    {
      "anonymous": false,
      "inputs": [
        {
          "indexed": true,
          "internalType": "bytes32",
          "name": "domainName",
          "type": "bytes32"
        },
        {
          "indexed": true,
          "internalType": "uint256",
          "name": "newFee",
          "type": "uint256"
        }
      ],
      "name": "RenewalFeeChanged",
      "type": "event"
    },
    {
      "anonymous": false,
      "inputs": [
        {
          "indexed": true,
          "internalType": "address",
          "name": "wallet",
          "type": "address"
        },
        {
          "indexed": true,
          "internalType": "bytes32",
          "name": "domainName",
          "type": "bytes32"
        },
        {
          "indexed": true,
          "internalType": "bytes32",
          "name": "id",
          "type": "bytes32"
        },
        {
          "components": [
            {
              "internalType": "address",
              "name": "wallet",
              "type": "address"
            },
            {
              "internalType": "bytes32",
              "name": "name",
              "type": "bytes32"
            },
            {
              "internalType": "bytes32",
              "name": "id",
              "type": "bytes32"
            },
            {
              "internalType": "uint96",
              "name": "nonce",
              "type": "uint96"
            },
            {
              "internalType": "bytes32",
              "name": "domainName",
              "type": "bytes32"
            },
            {
              "internalType": "uint256",
              "name": "validUntil",
              "type": "uint256"
            }
          ],
          "indexed": false,
          "internalType": "struct LibMultipass.Record",
          "name": "newRecord",
          "type": "tuple"
        }
      ],
      "name": "Renewed",
      "type": "event"
    },
    {
      "anonymous": false,
      "inputs": [
        {
          "indexed": true,
          "internalType": "uint256",
          "name": "amount",
          "type": "uint256"
        },
        {
          "indexed": true,
          "internalType": "address",
          "name": "account",
          "type": "address"
        }
      ],
      "name": "fundsWithdawn",
      "type": "event"
    },
    {
      "anonymous": false,
      "inputs": [
        {
          "indexed": true,
          "internalType": "bytes32",
          "name": "domainName",
          "type": "bytes32"
        },
        {
          "indexed": true,
          "internalType": "address",
          "name": "wallet",
          "type": "address"
        },
        {
          "indexed": true,
          "internalType": "bytes32",
          "name": "id",
          "type": "bytes32"
        },
        {
          "indexed": false,
          "internalType": "bytes32",
          "name": "name",
          "type": "bytes32"
        }
      ],
      "name": "nameDeleted",
      "type": "event"
    },
    {
      "inputs": [
        {
          "internalType": "bytes32",
          "name": "domainName",
          "type": "bytes32"
        }
      ],
      "name": "activateDomain",
      "outputs": [],
      "stateMutability": "nonpayable",
      "type": "function"
    },
    {
      "inputs": [
        {
          "internalType": "bytes32",
          "name": "domainName",
          "type": "bytes32"
        },
        {
          "internalType": "uint256",
          "name": "fee",
          "type": "uint256"
        }
      ],
      "name": "changeFee",
      "outputs": [],
      "stateMutability": "nonpayable",
      "type": "function"
    },
    {
      "inputs": [
        {
          "internalType": "uint256",
          "name": "referrerReward",
          "type": "uint256"
        },
        {
          "internalType": "uint256",
          "name": "referralDiscount",
          "type": "uint256"
        },
        {
          "internalType": "bytes32",
          "name": "domainName",
          "type": "bytes32"
        }
      ],
      "name": "changeReferralProgram",
      "outputs": [],
      "stateMutability": "nonpayable",
      "type": "function"
    },
    {
      "inputs": [
        {
          "internalType": "bytes32",
          "name": "domainName",
          "type": "bytes32"
        },
        {
          "internalType": "address",
          "name": "newRegistrar",
          "type": "address"
        }
      ],
      "name": "changeRegistrar",
      "outputs": [],
      "stateMutability": "nonpayable",
      "type": "function"
    },
    {
      "inputs": [
        {
          "internalType": "uint256",
          "name": "fee",
          "type": "uint256"
        },
        {
          "internalType": "bytes32",
          "name": "domainName",
          "type": "bytes32"
        }
      ],
      "name": "changeRenewalFee",
      "outputs": [],
      "stateMutability": "nonpayable",
      "type": "function"
    },
    {
      "inputs": [
        {
          "internalType": "bytes32",
          "name": "domainName",
          "type": "bytes32"
        }
      ],
      "name": "deactivateDomain",
      "outputs": [],
      "stateMutability": "nonpayable",
      "type": "function"
    },
    {
      "inputs": [
        {
          "components": [
            {
              "internalType": "bytes32",
              "name": "domainName",
              "type": "bytes32"
            },
            {
              "internalType": "address",
              "name": "wallet",
              "type": "address"
            },
            {
              "internalType": "bytes32",
              "name": "name",
              "type": "bytes32"
            },
            {
              "internalType": "bytes32",
              "name": "id",
              "type": "bytes32"
            },
            {
              "internalType": "bytes32",
              "name": "targetDomain",
              "type": "bytes32"
            }
          ],
          "internalType": "struct LibMultipass.NameQuery",
          "name": "query",
          "type": "tuple"
        }
      ],
      "name": "deleteName",
      "outputs": [],
      "stateMutability": "nonpayable",
      "type": "function"
    },
    {
      "inputs": [],
      "name": "eip712Domain",
      "outputs": [
        {
          "internalType": "bytes1",
          "name": "fields",
          "type": "bytes1"
        },
        {
          "internalType": "string",
          "name": "name",
          "type": "string"
        },
        {
          "internalType": "string",
          "name": "version",
          "type": "string"
        },
        {
          "internalType": "uint256",
          "name": "chainId",
          "type": "uint256"
        },
        {
          "internalType": "address",
          "name": "verifyingContract",
          "type": "address"
        },
        {
          "internalType": "bytes32",
          "name": "salt",
          "type": "bytes32"
        },
        {
          "internalType": "uint256[]",
          "name": "extensions",
          "type": "uint256[]"
        }
      ],
      "stateMutability": "view",
      "type": "function"
    },
    {
      "inputs": [],
      "name": "getContractState",
      "outputs": [
        {
          "internalType": "uint256",
          "name": "",
          "type": "uint256"
        }
      ],
      "stateMutability": "view",
      "type": "function"
    },
    {
      "inputs": [
        {
          "internalType": "bytes32",
          "name": "domainName",
          "type": "bytes32"
        }
      ],
      "name": "getDomainState",
      "outputs": [
        {
          "components": [
            {
              "internalType": "bytes32",
              "name": "name",
              "type": "bytes32"
            },
            {
              "internalType": "uint256",
              "name": "fee",
              "type": "uint256"
            },
            {
              "internalType": "uint256",
              "name": "referrerReward",
              "type": "uint256"
            },
            {
              "internalType": "uint256",
              "name": "referralDiscount",
              "type": "uint256"
            },
            {
              "internalType": "bool",
              "name": "isActive",
              "type": "bool"
            },
            {
              "internalType": "address",
              "name": "registrar",
              "type": "address"
            },
            {
              "internalType": "uint24",
              "name": "ttl",
              "type": "uint24"
            },
            {
              "internalType": "uint256",
              "name": "registerSize",
              "type": "uint256"
            },
            {
              "internalType": "uint256",
              "name": "renewalFee",
              "type": "uint256"
            }
          ],
          "internalType": "struct LibMultipass.Domain",
          "name": "",
          "type": "tuple"
        }
      ],
      "stateMutability": "view",
      "type": "function"
    },
    {
      "inputs": [
        {
          "internalType": "uint256",
          "name": "id",
          "type": "uint256"
        }
      ],
      "name": "getDomainStateById",
      "outputs": [
        {
          "components": [
            {
              "internalType": "bytes32",
              "name": "name",
              "type": "bytes32"
            },
            {
              "internalType": "uint256",
              "name": "fee",
              "type": "uint256"
            },
            {
              "internalType": "uint256",
              "name": "referrerReward",
              "type": "uint256"
            },
            {
              "internalType": "uint256",
              "name": "referralDiscount",
              "type": "uint256"
            },
            {
              "internalType": "bool",
              "name": "isActive",
              "type": "bool"
            },
            {
              "internalType": "address",
              "name": "registrar",
              "type": "address"
            },
            {
              "internalType": "uint24",
              "name": "ttl",
              "type": "uint24"
            },
            {
              "internalType": "uint256",
              "name": "registerSize",
              "type": "uint256"
            },
            {
              "internalType": "uint256",
              "name": "renewalFee",
              "type": "uint256"
            }
          ],
          "internalType": "struct LibMultipass.Domain",
          "name": "",
          "type": "tuple"
        }
      ],
      "stateMutability": "view",
      "type": "function"
    },
    {
      "inputs": [
        {
          "internalType": "string",
          "name": "name",
          "type": "string"
        },
        {
          "internalType": "string",
          "name": "version",
          "type": "string"
        },
        {
          "internalType": "address",
          "name": "owner",
          "type": "address"
        }
      ],
      "name": "initialize",
      "outputs": [],
      "stateMutability": "nonpayable",
      "type": "function"
    },
    {
      "inputs": [
        {
          "internalType": "address",
          "name": "registrar",
          "type": "address"
        },
        {
          "internalType": "uint256",
          "name": "fee",
          "type": "uint256"
        },
        {
          "internalType": "uint256",
          "name": "renewalFee",
          "type": "uint256"
        },
        {
          "internalType": "bytes32",
          "name": "domainName",
          "type": "bytes32"
        },
        {
          "internalType": "uint256",
          "name": "referrerReward",
          "type": "uint256"
        },
        {
          "internalType": "uint256",
          "name": "referralDiscount",
          "type": "uint256"
        }
      ],
      "name": "initializeDomain",
      "outputs": [],
      "stateMutability": "nonpayable",
      "type": "function"
    },
    {
      "inputs": [],
      "name": "owner",
      "outputs": [
        {
          "internalType": "address",
          "name": "",
          "type": "address"
        }
      ],
      "stateMutability": "view",
      "type": "function"
    },
    {
      "inputs": [
        {
          "components": [
            {
              "internalType": "address",
              "name": "wallet",
              "type": "address"
            },
            {
              "internalType": "bytes32",
              "name": "name",
              "type": "bytes32"
            },
            {
              "internalType": "bytes32",
              "name": "id",
              "type": "bytes32"
            },
            {
              "internalType": "uint96",
              "name": "nonce",
              "type": "uint96"
            },
            {
              "internalType": "bytes32",
              "name": "domainName",
              "type": "bytes32"
            },
            {
              "internalType": "uint256",
              "name": "validUntil",
              "type": "uint256"
            }
          ],
          "internalType": "struct LibMultipass.Record",
          "name": "newRecord",
          "type": "tuple"
        },
        {
          "internalType": "bytes",
          "name": "registrarSignature",
          "type": "bytes"
        },
        {
          "components": [
            {
              "internalType": "bytes32",
              "name": "domainName",
              "type": "bytes32"
            },
            {
              "internalType": "address",
              "name": "wallet",
              "type": "address"
            },
            {
              "internalType": "bytes32",
              "name": "name",
              "type": "bytes32"
            },
            {
              "internalType": "bytes32",
              "name": "id",
              "type": "bytes32"
            },
            {
              "internalType": "bytes32",
              "name": "targetDomain",
              "type": "bytes32"
            }
          ],
          "internalType": "struct LibMultipass.NameQuery",
          "name": "referrer",
          "type": "tuple"
        },
        {
          "internalType": "bytes",
          "name": "referralCode",
          "type": "bytes"
        }
      ],
      "name": "register",
      "outputs": [],
      "stateMutability": "payable",
      "type": "function"
    },
    {
      "inputs": [
        {
          "components": [
            {
              "internalType": "bytes32",
              "name": "domainName",
              "type": "bytes32"
            },
            {
              "internalType": "address",
              "name": "wallet",
              "type": "address"
            },
            {
              "internalType": "bytes32",
              "name": "name",
              "type": "bytes32"
            },
            {
              "internalType": "bytes32",
              "name": "id",
              "type": "bytes32"
            },
            {
              "internalType": "bytes32",
              "name": "targetDomain",
              "type": "bytes32"
            }
          ],
          "internalType": "struct LibMultipass.NameQuery",
          "name": "query",
          "type": "tuple"
        },
        {
          "components": [
            {
              "internalType": "address",
              "name": "wallet",
              "type": "address"
            },
            {
              "internalType": "bytes32",
              "name": "name",
              "type": "bytes32"
            },
            {
              "internalType": "bytes32",
              "name": "id",
              "type": "bytes32"
            },
            {
              "internalType": "uint96",
              "name": "nonce",
              "type": "uint96"
            },
            {
              "internalType": "bytes32",
              "name": "domainName",
              "type": "bytes32"
            },
            {
              "internalType": "uint256",
              "name": "validUntil",
              "type": "uint256"
            }
          ],
          "internalType": "struct LibMultipass.Record",
          "name": "record",
          "type": "tuple"
        },
        {
          "internalType": "bytes",
          "name": "registrarSignature",
          "type": "bytes"
        }
      ],
      "name": "renewRecord",
      "outputs": [],
      "stateMutability": "payable",
      "type": "function"
    },
    {
      "inputs": [],
      "name": "renounceOwnership",
      "outputs": [],
      "stateMutability": "nonpayable",
      "type": "function"
    },
    {
      "inputs": [
        {
          "components": [
            {
              "internalType": "bytes32",
              "name": "domainName",
              "type": "bytes32"
            },
            {
              "internalType": "address",
              "name": "wallet",
              "type": "address"
            },
            {
              "internalType": "bytes32",
              "name": "name",
              "type": "bytes32"
            },
            {
              "internalType": "bytes32",
              "name": "id",
              "type": "bytes32"
            },
            {
              "internalType": "bytes32",
              "name": "targetDomain",
              "type": "bytes32"
            }
          ],
          "internalType": "struct LibMultipass.NameQuery",
          "name": "query",
          "type": "tuple"
        }
      ],
      "name": "resolveRecord",
      "outputs": [
        {
          "internalType": "bool",
          "name": "",
          "type": "bool"
        },
        {
          "components": [
            {
              "internalType": "address",
              "name": "wallet",
              "type": "address"
            },
            {
              "internalType": "bytes32",
              "name": "name",
              "type": "bytes32"
            },
            {
              "internalType": "bytes32",
              "name": "id",
              "type": "bytes32"
            },
            {
              "internalType": "uint96",
              "name": "nonce",
              "type": "uint96"
            },
            {
              "internalType": "bytes32",
              "name": "domainName",
              "type": "bytes32"
            },
            {
              "internalType": "uint256",
              "name": "validUntil",
              "type": "uint256"
            }
          ],
          "internalType": "struct LibMultipass.Record",
          "name": "",
          "type": "tuple"
        }
      ],
      "stateMutability": "view",
      "type": "function"
    },
    {
      "inputs": [
        {
          "internalType": "bytes4",
          "name": "interfaceId",
          "type": "bytes4"
        }
      ],
      "name": "supportsInterface",
      "outputs": [
        {
          "internalType": "bool",
          "name": "",
          "type": "bool"
        }
      ],
      "stateMutability": "view",
      "type": "function"
    },
    {
      "inputs": [
        {
          "internalType": "address",
          "name": "newOwner",
          "type": "address"
        }
      ],
      "name": "transferOwnership",
      "outputs": [],
      "stateMutability": "nonpayable",
      "type": "function"
    }
  ],
  "transactionHash": "0xa90e83e7a61224279917a085f0e7f85b4e78c56b6a6df70e7d69ea23884d09a1",
  "args": [],
  "numDeployments": 1,
  "solcInputHash": "3ea029cd47e053e413b952184d94d3ca",
  "bytecode": "0x6080604052348015600f57600080fd5b506016601a565b60ca565b7ff0c57e16840df040f15088dc2f81fe391c3923bec73e23a9662efc9c229c6a00805468010000000000000000900460ff161560695760405163f92ee8a960e01b815260040160405180910390fd5b80546001600160401b039081161460c75780546001600160401b0319166001600160401b0390811782556040519081527fc7f505b2f371ae2175ee4913f4499e1f2633a7b5936321eed1cdaeb6115181d29060200160405180910390a15b50565b613862806100d96000396000f3fe60806040526004361061015f5760003560e01c80637916692c116100c05780638da5cb5b11610074578063d53175b711610059578063d53175b7146103d0578063f2fde38b146103f0578063f8a7e7911461041057600080fd5b80638da5cb5b1461035c578063ca55d6e4146103b057600080fd5b806384b0196e116100a557806384b0196e146102e6578063898c2bd71461030e5780638d5f464d1461033c57600080fd5b80637916692c146102965780637f4e4849146102c357600080fd5b80634f2f2ae111610117578063715018a6116100fc578063715018a614610241578063743790ed1461025657806375b83e5e1461027657600080fd5b80634f2f2ae1146102015780636608ef421461022157600080fd5b8063077f224a11610148578063077f224a146101ae5780630b07a3d1146101ce57806348158649146101ee57600080fd5b806301ffc9a714610164578063061e960814610199575b600080fd5b34801561017057600080fd5b5061018461017f366004612c91565b610430565b60405190151581526020015b60405180910390f35b6101ac6101a7366004612ef3565b6104c9565b005b3480156101ba57600080fd5b506101ac6101c9366004612f55565b61088a565b3480156101da57600080fd5b506101ac6101e9366004612fce565b610a16565b6101ac6101fc366004612fe7565b610a91565b34801561020d57600080fd5b506101ac61021c366004613075565b610f50565b34801561022d57600080fd5b506101ac61023c3660046130a1565b61106b565b34801561024d57600080fd5b506101ac611282565b34801561026257600080fd5b506101ac6102713660046130eb565b611296565b34801561028257600080fd5b506101ac610291366004612fce565b611398565b3480156102a257600080fd5b506102b66102b1366004612fce565b611410565b6040516101909190613117565b3480156102cf57600080fd5b506102d8611504565b604051908152602001610190565b3480156102f257600080fd5b506102fb611513565b604051610190979695949392919061320f565b34801561031a57600080fd5b5061032e6103293660046132d0565b61160f565b6040516101909291906132ec565b34801561034857600080fd5b506102b6610357366004612fce565b611652565b34801561036857600080fd5b507f9016d09d72d40fdae2fd8ceac6b6234c7706214fd39c1cd1e609a0528c1993005460405173ffffffffffffffffffffffffffffffffffffffff9091168152602001610190565b3480156103bc57600080fd5b506101ac6103cb36600461335b565b6116a4565b3480156103dc57600080fd5b506101ac6103eb36600461335b565b611766565b3480156103fc57600080fd5b506101ac61040b36600461337d565b6117be565b34801561041c57600080fd5b506101ac61042b3660046132d0565b611822565b60007fffffffff0000000000000000000000000000000000000000000000000000000082167f88ecd0bd0000000000000000000000000000000000000000000000000000000014806104c357507f01ffc9a7000000000000000000000000000000000000000000000000000000007fffffffff000000000000000000000000000000000000000000000000000000008316145b92915050565b6104d1611a57565b6104de8260800151611ad8565b6000806104ea85611b65565b606080870151908201519294509092506bffffffffffffffffffffffff80821690831610610561576040517fed2c5af90000000000000000000000000000000000000000000000000000000081526bffffffffffffffffffffffff9283166004820152911660248201526044015b60405180910390fd5b5050608080850151908201519081146105a9576040517fb4a9a60400000000000000000000000000000000000000000000000000000000815260040161055891815260200190565b506105b48484611b9f565b848261062e57604080517f76fcd6d600000000000000000000000000000000000000000000000000000000815282516004820152602083015173ffffffffffffffffffffffffffffffffffffffff16602482015290820151604482015260608201516064820152608090910151608482015260a401610558565b50600061063e8560800151611ea5565b6004810154608087015191925060ff16610687576040517f35b79ca400000000000000000000000000000000000000000000000000000000815260040161055891815260200190565b5060a0850151428110156106ca576040517f697d517d00000000000000000000000000000000000000000000000000000000815260040161055891815260200190565b5084604001518560800151866000015173ffffffffffffffffffffffffffffffffffffffff167f6753198d54b2e4642b1a6e2511b6c7431bd7230eb4733b64fcd12dbf3dc30a078860405161071f9190613398565b60405180910390a4600681015415610859576006810154348181101561077a576040517f58c72c4500000000000000000000000000000000000000000000000000000000815260048101929092526024820152604401610558565b505060006107bc7f9016d09d72d40fdae2fd8ceac6b6234c7706214fd39c1cd1e609a0528c1993005473ffffffffffffffffffffffffffffffffffffffff1690565b600683015460405173ffffffffffffffffffffffffffffffffffffffff9290921691600081818185875af1925050503d8060008114610817576040519150601f19603f3d011682016040523d82523d6000602084013e61081c565b606091505b5050905080610857576040517f28e7763f00000000000000000000000000000000000000000000000000000000815260040160405180910390fd5b505b50505061088560017f9b779b17422d0df92223018b32b4d1fa46e071723d6817e2486d003becc55f0055565b505050565b7ff0c57e16840df040f15088dc2f81fe391c3923bec73e23a9662efc9c229c6a00805468010000000000000000810460ff16159067ffffffffffffffff166000811580156108d55750825b905060008267ffffffffffffffff1660011480156108f25750303b155b905081158015610900575080155b15610937576040517ff92ee8a900000000000000000000000000000000000000000000000000000000815260040160405180910390fd5b84547fffffffffffffffffffffffffffffffffffffffffffffffff000000000000000016600117855583156109985784547fffffffffffffffffffffffffffffffffffffffffffffff00ffffffffffffffff16680100000000000000001785555b6109a186611ed4565b6109ab8888611ee5565b8315610a0c5784547fffffffffffffffffffffffffffffffffffffffffffffff00ffffffffffffffff168555604051600181527fc7f505b2f371ae2175ee4913f4499e1f2633a7b5936321eed1cdaeb6115181d29060200160405180910390a15b5050505050505050565b610a1e611ef7565b610a2781611ad8565b6000610a3282611ea5565b6004810180547fffffffffffffffffffffffffffffffffffffffffffffffffffffffffffffff0016600117905560405190915082907f12ba12d5905656d674e5e6eb43518e8037aa5c2d412275fed1d6c87b3579f8f490600090a25050565b610a99611a57565b610aa68460800151611ad8565b6040805160a08082018352600080835260208084018290528385018290526060808501839052608094850183905285519384018652828452838201838152848701848152918501848152858701859052968b0151909652938901518352880151909252865173ffffffffffffffffffffffffffffffffffffffff1690925280610b2e83611b65565b9150915081158190610b6d576040517f6978d8a20000000000000000000000000000000000000000000000000000000081526004016105589190613398565b50505050610b7b8484611b9f565b6000610b8a8560800151611ea5565b9050600080610b9885611b65565b91509150600082610baa576000610bb0565b60028401545b9050600083610bc0576000610bc6565b60038501545b6001860154610bd5919061342e565b9050803481811015610c1c576040517f58c72c4500000000000000000000000000000000000000000000000000000000815260048101929092526024820152604401610558565b5060009050610c2b833461342e565b90506000610c6d7f9016d09d72d40fdae2fd8ceac6b6234c7706214fd39c1cd1e609a0528c1993005473ffffffffffffffffffffffffffffffffffffffff1690565b73ffffffffffffffffffffffffffffffffffffffff168260405160006040518083038185875af1925050503d8060008114610cc4576040519150601f19603f3d011682016040523d82523d6000602084013e610cc9565b606091505b5050905080610d04576040517f28e7763f00000000000000000000000000000000000000000000000000000000815260040160405180910390fd5b508415610ed7578951845173ffffffffffffffffffffffffffffffffffffffff918216911603610d60576040517f158f8ec200000000000000000000000000000000000000000000000000000000815260040160405180910390fd5b8351604080517f216da2d1b8943b28c3c65d1a24b58fdf6dfd051d8f0667966ebf5d8ae37ceb76602082015273ffffffffffffffffffffffffffffffffffffffff90921682820152805180830382018152606090920190528451610dc79082908a90611f85565b610dfd576040517fd1cc120200000000000000000000000000000000000000000000000000000000815260040160405180910390fd5b845160405160009173ffffffffffffffffffffffffffffffffffffffff169086908381818185875af1925050503d8060008114610e56576040519150601f19603f3d011682016040523d82523d6000602084013e610e5b565b606091505b5050905080610e96576040517f28e7763f00000000000000000000000000000000000000000000000000000000815260040160405180910390fd5b505089608001517fe15b8c6c90311f7f1ef7acd0c591854454b7ce3e8f9b781b840bddb4b2df2136858c604051610ece929190613441565b60405180910390a25b610ee18a87611fb0565b85546040517fbe3ff53fa4b2c981ecee65725c32db419428aa34c21d80a35e2f62295b9ffaf190610f13908d90613398565b60405180910390a2505050505050610f4a60017f9b779b17422d0df92223018b32b4d1fa46e071723d6817e2486d003becc55f0055565b50505050565b610f58611ef7565b610f6181611ad8565b6000610f6c82611ea5565b9050600080610f7b8686611fdb565b9092509050858583610fc2576040517f7b74c89100000000000000000000000000000000000000000000000000000000815260048101929092526024820152604401610558565b505060018301548690869080841115611018576040517faab49332000000000000000000000000000000000000000000000000000000008152600481019390935260248301919091526044820152606401610558565b5050506002830186905560038301859055604080518781526020810187905285917e640530575cb3beb0ff2a19a68ca7e85232d0defd808bb6945c8250a0e6c828910160405180910390a2505050505050565b611073611ef7565b8573ffffffffffffffffffffffffffffffffffffffff81166110da576040517fc4124c0600000000000000000000000000000000000000000000000000000000815273ffffffffffffffffffffffffffffffffffffffff9091166004820152602401610558565b506110e483612004565b60019061111e576040517f2a408330000000000000000000000000000000000000000000000000000000008152600401610558919061353e565b5061112883612023565b839015611164576040517f143dc3f800000000000000000000000000000000000000000000000000000000815260040161055891815260200190565b506000806111728484611fdb565b90925090508383836111b9576040517f7b74c89100000000000000000000000000000000000000000000000000000000815260048101929092526024820152604401610558565b5084905083888084111561120a576040517faab49332000000000000000000000000000000000000000000000000000000008152600481019390935260248301919091526044820152606401610558565b50505061121b888888888888612043565b60408051878152602081018690529081018490528590889073ffffffffffffffffffffffffffffffffffffffff8b16907fffc21a23b715653050f8085f1c0b2ad389452156c248d4483aa814cb417541309060600160405180910390a45050505050505050565b61128a611ef7565b611294600061210c565b565b61129e611ef7565b6112a782611ad8565b60006112b283611ea5565b90508173ffffffffffffffffffffffffffffffffffffffff811661131b576040517fc4124c0600000000000000000000000000000000000000000000000000000000815273ffffffffffffffffffffffffffffffffffffffff9091166004820152602401610558565b506004810180547fffffffffffffffffffffff0000000000000000000000000000000000000000ff1661010073ffffffffffffffffffffffffffffffffffffffff85169081029190911790915560405184907fd41d966d7fbc3eb366c5a0e0abea2aa1b2ceba4b78ee1e0314bf47dfb19011f290600090a3505050565b6113a0611ef7565b6113a981611ad8565b60006113b482611ea5565b6004810180547fffffffffffffffffffffffffffffffffffffffffffffffffffffffffffffff0016905560405190915082907f3e326791c535b99fa4690e49e159504f5930c05068dce433b45279165d51f73890600090a25050565b6040805161012081018252600080825260208201819052918101829052606081018290526080810182905260a0810182905260c0810182905260e0810182905261010081018290529061146283611ea5565b6040805161012081018252825481526001830154602082015260028301549181019190915260038201546060820152600482015460ff81161515608083015261010080820473ffffffffffffffffffffffffffffffffffffffff1660a0840152750100000000000000000000000000000000000000000090910462ffffff1660c0830152600583015460e0830152600690920154918101919091529392505050565b600061150e6121a2565b905090565b600060608082808083817fa16a46d94261c7517cc8ff89f61c0ce93598e3c849801011dee649a6a557d100805490915015801561155257506001810154155b6115b8576040517f08c379a000000000000000000000000000000000000000000000000000000000815260206004820152601560248201527f4549503731323a20556e696e697469616c697a656400000000000000000000006044820152606401610558565b6115c06121b7565b6115c861228c565b604080516000808252602082019092527f0f000000000000000000000000000000000000000000000000000000000000009c939b5091995046985030975095509350915050565b6040805160c081018252600080825260208201819052918101829052606081018290526080810182905260a0810182905261164983611b65565b91509150915091565b6040805161012081018252600080825260208201819052918101829052606081018290526080810182905260a0810182905260c0810182905260e08101829052610100810182905290611462836122dd565b6116ac611ef7565b6116b582611ad8565b60006116c083611ea5565b6002810154600382015491925090836116d9838361357f565b1115828286909192611728576040517faab49332000000000000000000000000000000000000000000000000000000008152600481019390935260248301919091526044820152606401610558565b50505060018301849055604051849086907f850b5f3a1167567889ff23ccba717cf63dc8e533b3ce66ebe7f9036ea50d397490600090a35050505050565b61176e611ef7565b61177781611ad8565b600061178282611ea5565b60068101849055604051909150839083907ff467a58694cff42eecfd79cfba75e4ff7d2f044dac2f3702a4c2cd782a5e351190600090a3505050565b6117c6611ef7565b73ffffffffffffffffffffffffffffffffffffffff8116611816576040517f1e4fbdf700000000000000000000000000000000000000000000000000000000815260006004820152602401610558565b61181f8161210c565b50565b61182a611ef7565b805161183590611ad8565b60006118448260000151611ea5565b6000608084018190529091508061185a8461160f565b915091508184906118d957604080517f76fcd6d600000000000000000000000000000000000000000000000000000000815282516004820152602083015173ffffffffffffffffffffffffffffffffffffffff16602482015290820151604482015260608201516064820152608090910151608482015260a401610558565b50805173ffffffffffffffffffffffffffffffffffffffff908116600090815260098501602090815260408083208390558085018051845260078801835281842080547fffffffffffffffffffffffff000000000000000000000000000000000000000016905580518452600b88018352818420849055828601518452600a8801835281842084905585519094168352600c87018252808320839055925182526008860190529081208054600192906119a19084906bffffffffffffffffffffffff16613592565b92506101000a8154816bffffffffffffffffffffffff02191690836bffffffffffffffffffffffff1602179055508260000160050160008154809291906119e7906135b6565b91905055508060400151816000015173ffffffffffffffffffffffffffffffffffffffff1684600001600001547fee56310501c49a670570d1edf7adfbe3fb90b4ae92c631470d3d4b059b7ab7a78460200151604051611a4991815260200190565b60405180910390a450505050565b7f9b779b17422d0df92223018b32b4d1fa46e071723d6817e2486d003becc55f0080547ffffffffffffffffffffffffffffffffffffffffffffffffffffffffffffffffe01611ad2576040517f3ee5aeb500000000000000000000000000000000000000000000000000000000815260040160405180910390fd5b60029055565b611ae181612004565b8190611b1c576040517fb4a9a60400000000000000000000000000000000000000000000000000000000815260040161055891815260200190565b50611b2681612023565b8190611b61576040517fb4a9a60400000000000000000000000000000000000000000000000000000000815260040161055891815260200190565b5050565b6040805160c081018252600080825260208201819052918101829052606081018290526080810182905260a08101829052611649836122f9565b6040805160a08082018352600080835260208084018290528385018290526060808501839052608094850183905285519384018652828452838201838152848701848152918501848152858701949094529588015192839052938701518352860151909252845173ffffffffffffffffffffffffffffffffffffffff16909252611c2890612004565b600090611c62576040517f2a408330000000000000000000000000000000000000000000000000000000008152600401610558919061353e565b508051611c6e90612004565b600190611ca8576040517f2a408330000000000000000000000000000000000000000000000000000000008152600401610558919061353e565b50602081015160029073ffffffffffffffffffffffffffffffffffffffff16611cfe576040517f2a408330000000000000000000000000000000000000000000000000000000008152600401610558919061353e565b506000611d0e8260000151611ea5565b6004810154815491925060009060ff16611d5f576040517f26ace5c3000000000000000000000000000000000000000000000000000000008152600481019290925215156024820152604401610558565b505060a0840151428111611da2576040517f697d517d00000000000000000000000000000000000000000000000000000000815260040161055891815260200190565b5060007f8fbd59cffaeee96fb33d5c90d61a05b296d2974d6b6a6962a14125fd85a1b4c48560200151866040015187608001518860a001518960600151604051602001611e259695949392919095865260208601949094526040850192909252606084015260808301526bffffffffffffffffffffffff1660a082015260c00190565b6040516020818303038152906040529050611e6881858460000160040160019054906101000a900473ffffffffffffffffffffffffffffffffffffffff16611f85565b611e9e576040517fd1cc120200000000000000000000000000000000000000000000000000000000815260040160405180910390fd5b5050505050565b600080611eb06124e4565b9050806000611ebe85612023565b8152602001908152602001600020915050919050565b611edc612512565b61181f81612579565b611eed612512565b611b618282612581565b33611f367f9016d09d72d40fdae2fd8ceac6b6234c7706214fd39c1cd1e609a0528c1993005473ffffffffffffffffffffffffffffffffffffffff1690565b73ffffffffffffffffffffffffffffffffffffffff1614611294576040517f118cdaa7000000000000000000000000000000000000000000000000000000008152336004820152602401610558565b600080611f9885805190602001206125f4565b9050611fa583828661263c565b9150505b9392505050565b611fba81836126b8565b6001816000016005016000828254611fd2919061357f565b90915550505050565b60008083830184811015611ff6576000809250925050611ffd565b6001925090505b9250929050565b60008160000361201657506000919050565b506001919050565b919050565b60008061202e6124e4565b60009384526001016020525050604090205490565b600061204d6124e4565b9050600081600201546001612062919061357f565b60008181526020849052604081206004810180547fffffffffffffffffffffff0000000000000000000000000000000000000000ff1661010073ffffffffffffffffffffffffffffffffffffffff8e1602179055600181018a9055878155600280820188905560038201879055600682018a9055850180549394509092916120e9836135eb565b909155505050600094855260019091016020526040909320929092555050505050565b7f9016d09d72d40fdae2fd8ceac6b6234c7706214fd39c1cd1e609a0528c19930080547fffffffffffffffffffffffff0000000000000000000000000000000000000000811673ffffffffffffffffffffffffffffffffffffffff848116918217845560405192169182907f8be0079c531659141344cd1fd0a4f28419497f9722a3daafe3b4186f6b6457e090600090a3505050565b6000806121ad6124e4565b6002015492915050565b7fa16a46d94261c7517cc8ff89f61c0ce93598e3c849801011dee649a6a557d10280546060917fa16a46d94261c7517cc8ff89f61c0ce93598e3c849801011dee649a6a557d1009161220890613623565b80601f016020809104026020016040519081016040528092919081815260200182805461223490613623565b80156122815780601f1061225657610100808354040283529160200191612281565b820191906000526020600020905b81548152906001019060200180831161226457829003601f168201915b505050505091505090565b7fa16a46d94261c7517cc8ff89f61c0ce93598e3c849801011dee649a6a557d10380546060917fa16a46d94261c7517cc8ff89f61c0ce93598e3c849801011dee649a6a557d1009161220890613623565b6000806122e86124e4565b600093845260205250506040902090565b6040805160c081018252600080825260208201819052918101829052606081018290526080810182905260a08101829052602083015173ffffffffffffffffffffffffffffffffffffffff1615801561235457506060830151155b801561236257506040830151155b156123a15750506040805160c081018252600080825260208201819052918101829052606081018290526080810182905260a081018290529092909150565b60006123ab6124e4565b845160009081526001820160208181526040808420548452908490528220608088015193945092849183918290156123e75789608001516123ea565b89515b8152602001908152602001600020548152602001908152602001600020905060008073ffffffffffffffffffffffffffffffffffffffff16876020015173ffffffffffffffffffffffffffffffffffffffff161461244d575060208601516124cd565b60608701511561248957506060860151600090815260078301602052604090205473ffffffffffffffffffffffffffffffffffffffff166124cd565b6040870151156124cd57506040808701516000908152600a84016020908152828220548252600785019052205473ffffffffffffffffffffffffffffffffffffffff165b6124d781836127d2565b9550955050505050915091565b6000806104c360017f04bdbdc4307cce9e40fe195fd3bd1e3c1c204492d1ed6f443150de8aa0bc48d061342e565b7ff0c57e16840df040f15088dc2f81fe391c3923bec73e23a9662efc9c229c6a005468010000000000000000900460ff16611294576040517fd7e6bcf800000000000000000000000000000000000000000000000000000000815260040160405180910390fd5b6117c6612512565b612589612512565b7fa16a46d94261c7517cc8ff89f61c0ce93598e3c849801011dee649a6a557d1007fa16a46d94261c7517cc8ff89f61c0ce93598e3c849801011dee649a6a557d1026125d584826136bd565b50600381016125e483826136bd565b5060008082556001909101555050565b60006104c36126016128ad565b836040517f19010000000000000000000000000000000000000000000000000000000000008152600281019290925260228201526042902090565b600080600061264b85856128b7565b50909250905060008160038111156126655761266561350f565b14801561269d57508573ffffffffffffffffffffffffffffffffffffffff168273ffffffffffffffffffffffffffffffffffffffff16145b806126ae57506126ae868686612904565b9695505050505050565b60408181018051835173ffffffffffffffffffffffffffffffffffffffff90811660009081526009870160209081528582209390935585518451825260078801845285822080547fffffffffffffffffffffffff0000000000000000000000000000000000000000169190931617909155818501805184518352600b8801845285832055835190518252600a8701835284822055915182526008850190529081208054600192906127789084906bffffffffffffffffffffffff16613592565b82546bffffffffffffffffffffffff9182166101009390930a92830291909202199091161790555060a0810151905173ffffffffffffffffffffffffffffffffffffffff166000908152600c909201602052604090912055565b6040805160c08082018352600080835260208084018290528385018290526060808501839052608080860184905260a08087018590528751958601885284865285840185815286890186815293870186815292870186815291870186815273ffffffffffffffffffffffffffffffffffffffff8c1680885260098c0187528a8820548087528852600b8c0187528a8820549092528451875260088b018652898720546bffffffffffffffffffffffff1690935280875289549091528452600c88019092529482205490529251611ff657600092509050611ffd565b600061150e612a51565b600080600083516041036128f15760208401516040850151606086015160001a6128e388828585612ac5565b9550955095505050506128fd565b50508151600091506002905b9250925092565b60008060008573ffffffffffffffffffffffffffffffffffffffff1685856040516024016129339291906137d6565b604080517fffffffffffffffffffffffffffffffffffffffffffffffffffffffffffffffe08184030181529181526020820180517bffffffffffffffffffffffffffffffffffffffffffffffffffffffff167f1626ba7e00000000000000000000000000000000000000000000000000000000179052516129b491906137f7565b600060405180830381855afa9150503d80600081146129ef576040519150601f19603f3d011682016040523d82523d6000602084013e6129f4565b606091505b5091509150818015612a0857506020815110155b80156126ae575080517f1626ba7e0000000000000000000000000000000000000000000000000000000090612a469083016020908101908401613813565b149695505050505050565b60007f8b73c3c69bb8fe3d512ecc4cf759cc79239f7b179b0ffacaa9a75d522b39400f612a7c612bbf565b612a84612c3b565b60408051602081019490945283019190915260608201524660808201523060a082015260c00160405160208183030381529060405280519060200120905090565b600080807f7fffffffffffffffffffffffffffffff5d576e7357a4501ddfe92f46681b20a0841115612b005750600091506003905082612bb5565b604080516000808252602082018084528a905260ff891692820192909252606081018790526080810186905260019060a0016020604051602081039080840390855afa158015612b54573d6000803e3d6000fd5b50506040517fffffffffffffffffffffffffffffffffffffffffffffffffffffffffffffffe0015191505073ffffffffffffffffffffffffffffffffffffffff8116612bab57506000925060019150829050612bb5565b9250600091508190505b9450945094915050565b60007fa16a46d94261c7517cc8ff89f61c0ce93598e3c849801011dee649a6a557d10081612beb6121b7565b805190915015612c0357805160209091012092915050565b81548015612c12579392505050565b7fc5d2460186f7233c927e7db2dcc703c0e500b653ca82273b7bfad8045d85a470935050505090565b60007fa16a46d94261c7517cc8ff89f61c0ce93598e3c849801011dee649a6a557d10081612c6761228c565b805190915015612c7f57805160209091012092915050565b60018201548015612c12579392505050565b600060208284031215612ca357600080fd5b81357fffffffff0000000000000000000000000000000000000000000000000000000081168114611fa957600080fd5b7f4e487b7100000000000000000000000000000000000000000000000000000000600052604160045260246000fd5b60405160c0810167ffffffffffffffff81118282101715612d2557612d25612cd3565b60405290565b803573ffffffffffffffffffffffffffffffffffffffff8116811461201e57600080fd5b600060a08284031215612d6157600080fd5b60405160a0810167ffffffffffffffff81118282101715612d8457612d84612cd3565b60405282358152905080612d9a60208401612d2b565b60208201526040838101359082015260608084013590820152608092830135920191909152919050565b600060c08284031215612dd657600080fd5b612dde612d02565b9050612de982612d2b565b8152602082810135908201526040808301359082015260608201356bffffffffffffffffffffffff81168114612e1e57600080fd5b60608201526080828101359082015260a09182013591810191909152919050565b600082601f830112612e5057600080fd5b81356020830160008067ffffffffffffffff841115612e7157612e71612cd3565b506040517fffffffffffffffffffffffffffffffffffffffffffffffffffffffffffffffe0601f85018116603f0116810181811067ffffffffffffffff82111715612ebe57612ebe612cd3565b604052838152905080828401871015612ed657600080fd5b838360208301376000602085830101528094505050505092915050565b60008060006101808486031215612f0957600080fd5b612f138585612d4f565b9250612f228560a08601612dc4565b915061016084013567ffffffffffffffff811115612f3f57600080fd5b612f4b86828701612e3f565b9150509250925092565b600080600060608486031215612f6a57600080fd5b833567ffffffffffffffff811115612f8157600080fd5b612f8d86828701612e3f565b935050602084013567ffffffffffffffff811115612faa57600080fd5b612fb686828701612e3f565b925050612fc560408501612d2b565b90509250925092565b600060208284031215612fe057600080fd5b5035919050565b6000806000806101a08587031215612ffe57600080fd5b6130088686612dc4565b935060c085013567ffffffffffffffff81111561302457600080fd5b61303087828801612e3f565b9350506130408660e08701612d4f565b915061018085013567ffffffffffffffff81111561305d57600080fd5b61306987828801612e3f565b91505092959194509250565b60008060006060848603121561308a57600080fd5b505081359360208301359350604090920135919050565b60008060008060008060c087890312156130ba57600080fd5b6130c387612d2b565b9860208801359850604088013597606081013597506080810135965060a00135945092505050565b600080604083850312156130fe57600080fd5b8235915061310e60208401612d2b565b90509250929050565b6000610120820190508251825260208301516020830152604083015160408301526060830151606083015260808301511515608083015273ffffffffffffffffffffffffffffffffffffffff60a08401511660a083015260c083015161318460c084018262ffffff169052565b5060e083015160e083015261010083015161010083015292915050565b60005b838110156131bc5781810151838201526020016131a4565b50506000910152565b600081518084526131dd8160208601602086016131a1565b601f017fffffffffffffffffffffffffffffffffffffffffffffffffffffffffffffffe0169290920160200192915050565b7fff000000000000000000000000000000000000000000000000000000000000008816815260e06020820152600061324a60e08301896131c5565b828103604084015261325c81896131c5565b6060840188905273ffffffffffffffffffffffffffffffffffffffff8716608085015260a0840186905283810360c08501528451808252602080870193509091019060005b818110156132bf5783518352602093840193909201916001016132a1565b50909b9a5050505050505050505050565b600060a082840312156132e257600080fd5b611fa98383612d4f565b821515815260e08101611fa9602083018473ffffffffffffffffffffffffffffffffffffffff815116825260208101516020830152604081015160408301526bffffffffffffffffffffffff60608201511660608301526080810151608083015260a081015160a08301525050565b6000806040838503121561336e57600080fd5b50508035926020909101359150565b60006020828403121561338f57600080fd5b611fa982612d2b565b60c081016104c3828473ffffffffffffffffffffffffffffffffffffffff815116825260208101516020830152604081015160408301526bffffffffffffffffffffffff60608201511660608301526080810151608083015260a081015160a08301525050565b7f4e487b7100000000000000000000000000000000000000000000000000000000600052601160045260246000fd5b818103818111156104c3576104c36133ff565b61018081016134a9828573ffffffffffffffffffffffffffffffffffffffff815116825260208101516020830152604081015160408301526bffffffffffffffffffffffff60608201511660608301526080810151608083015260a081015160a08301525050565b825173ffffffffffffffffffffffffffffffffffffffff1660c0830152602083015160e0830152604083015161010083015260608301516bffffffffffffffffffffffff16610120830152608083015161014083015260a0830151610160830152611fa9565b7f4e487b7100000000000000000000000000000000000000000000000000000000600052602160045260246000fd5b6020810160038310613579577f4e487b7100000000000000000000000000000000000000000000000000000000600052602160045260246000fd5b91905290565b808201808211156104c3576104c36133ff565b6bffffffffffffffffffffffff81811683821601908111156104c3576104c36133ff565b6000816135c5576135c56133ff565b507fffffffffffffffffffffffffffffffffffffffffffffffffffffffffffffffff0190565b60007fffffffffffffffffffffffffffffffffffffffffffffffffffffffffffffffff820361361c5761361c6133ff565b5060010190565b600181811c9082168061363757607f821691505b602082108103613670577f4e487b7100000000000000000000000000000000000000000000000000000000600052602260045260246000fd5b50919050565b601f82111561088557806000526020600020601f840160051c8101602085101561369d5750805b601f840160051c820191505b81811015611e9e57600081556001016136a9565b815167ffffffffffffffff8111156136d7576136d7612cd3565b6136eb816136e58454613623565b84613676565b6020601f82116001811461373d57600083156137075750848201515b7fffffffffffffffffffffffffffffffffffffffffffffffffffffffffffffffff600385901b1c1916600184901b178455611e9e565b6000848152602081207fffffffffffffffffffffffffffffffffffffffffffffffffffffffffffffffe08516915b8281101561378b578785015182556020948501946001909201910161376b565b50848210156137c757868401517fffffffffffffffffffffffffffffffffffffffffffffffffffffffffffffffff600387901b60f8161c191681555b50505050600190811b01905550565b8281526040602082015260006137ef60408301846131c5565b949350505050565b600082516138098184602087016131a1565b9190910192915050565b60006020828403121561382557600080fd5b505191905056fea2646970667358221220cbaf480f912eedd0b67e70830989e0ad0e3f783a0bbc74c3c82b1e3bf72d5dad64736f6c634300081c0033",
  "devdoc": {
    "custom:security-contact": "sirt@peeramid.xyz",
    "details": "This contract implements various functions related to the management of domain names and registration records.",
    "errors": {
      "InvalidInitialization()": [
        {
          "details": "The contract is already initialized."
        }
      ],
      "NotInitializing()": [
        {
          "details": "The contract is not initializing."
        }
      ],
      "OwnableInvalidOwner(address)": [
        {
          "details": "The owner is not a valid owner account. (eg. `address(0)`)"
        }
      ],
      "OwnableUnauthorizedAccount(address)": [
        {
          "details": "The caller account is not authorized to perform an operation."
        }
      ],
      "ReentrancyGuardReentrantCall()": [
        {
          "details": "Unauthorized reentrant call."
        }
      ]
    },
    "events": {
      "DomainActivated(bytes32)": {
        "details": "Emitted when a domain is activated.",
        "params": {
          "domainName": "The name of the activated domain."
        }
      },
      "DomainDeactivated(bytes32)": {
        "details": "Emitted when a domain is deactivated.",
        "params": {
          "domainName": "The name of the deactivated domain."
        }
      },
      "DomainFeeChanged(bytes32,uint256)": {
        "details": "Emitted when the fee for a domain is changed.",
        "params": {
          "domainName": "The name of the domain.",
          "newFee": "The new fee for the domain."
        }
      },
      "EIP712DomainChanged()": {
        "details": "MAY be emitted to signal that the domain could have changed."
      },
      "Initialized(uint64)": {
        "details": "Triggered when the contract has been initialized or reinitialized."
      },
      "InitializedDomain(address,uint256,bytes32,uint256,uint256,uint256)": {
        "details": "Initializes a new domain with the specified parameters.",
        "params": {
          "domainName": "The name of the domain.",
          "fee": "The fee required for registration in the domain.",
          "referralDiscount": "The discount for referrals in the domain.",
          "referrerReward": "The reward for referring new registrations to the domain.",
          "registrar": "The address of the registrar for the domain."
        }
      },
      "ReferralProgramChanged(bytes32,uint256,uint256)": {
        "details": "Emitted when the referral program for a domain is changed.",
        "params": {
          "discount": "The referral discount amount.",
          "domainName": "The domain name.",
          "reward": "The referral reward amount."
        }
      },
      "Referred((address,bytes32,bytes32,uint96,bytes32,uint256),(address,bytes32,bytes32,uint96,bytes32,uint256),bytes32)": {
        "details": "Emitted when a user is referred.",
        "params": {
          "domainName": "The domain name.",
          "newRecord": "The new record.",
          "refferrer": "The record of the referrer."
        }
      },
      "Registered(bytes32,(address,bytes32,bytes32,uint96,bytes32,uint256))": {
        "details": "Emitted when a domain is registered.",
        "params": {
          "NewRecord": "The new record.",
          "domainName": "The domain name."
        }
      },
      "RegistrarChanged(bytes32,address)": {
        "details": "Emitted when a registrar change is requested for a domain.",
        "params": {
          "domainName": "The name of the domain.",
          "registrar": "The address of the new registrar."
        }
      },
      "RenewalFeeChanged(bytes32,uint256)": {
        "details": "Emitted when a domain renewal fee is changed.",
        "params": {
          "domainName": "The domain name.",
          "newFee": "The new renewal fee."
        }
      },
      "Renewed(address,bytes32,bytes32,(address,bytes32,bytes32,uint96,bytes32,uint256))": {
        "details": "Emitted when a user record is renewed.",
        "params": {
          "domainName": "The domain name.",
          "id": "The ID of the record.",
          "newRecord": "The new record.",
          "wallet": "The address of the wallet."
        }
      },
      "fundsWithdawn(uint256,address)": {
        "details": "returns price for registering name"
      },
      "nameDeleted(bytes32,address,bytes32,bytes32)": {
        "details": "Emitted when a name is deleted.",
        "params": {
          "domainName": "The domain name.",
          "id": "The ID of the name.",
          "name": "The name.",
          "wallet": "The address of the wallet."
        }
      }
    },
    "kind": "dev",
    "methods": {
      "activateDomain(bytes32)": {
        "details": "Activates LibMultipass.Domain name Requirements:  msg.sender is Owner  Emits an {DomainActivated} event."
      },
      "changeFee(bytes32,uint256)": {
        "details": "Changes registrar address Requirements:  msg.sender is Owner  Emits an {DomainFeeChanged} event."
      },
      "changeReferralProgram(uint256,uint256,bytes32)": {
        "details": "executes all pending changes to LibMultipass.Domain that fulfill TTL Requirements:  domainName must be set  referrerFeeShare+referralDiscount cannot be larger than 2^32  Emits an {ReferralProgramChangeRequested} event."
      },
      "changeRegistrar(bytes32,address)": {
        "details": "Changes registrar address Requirements:  msg.sender is Owner  Emits an {RegistrarChangeRequested} event."
      },
      "changeRenewalFee(uint256,bytes32)": {
        "details": "changes renewal fee for domain Requirements:  domainName must be set  fee must be set  Emits an {RenewalFeeChangeRequested} event."
      },
      "deactivateDomain(bytes32)": {
        "details": "Deactivates LibMultipass.Domain name Deactivated LibMultipass.Domain cannot mutate names and will return zeros Requirements:  msg.sender is Owner OR registrar  Emits an {DomainDeactivated} event."
      },
      "deleteName((bytes32,address,bytes32,bytes32,bytes32))": {
        "details": "deletes name Requirements:  msg.sender is Owner  Emits an {DomainTTLChangeRequested} event."
      },
      "eip712Domain()": {
        "details": "See {IERC-5267}."
      },
      "getContractState()": {
        "details": "returns contract state variables",
        "returns": {
          "_0": "(s_numDomains)"
        }
      },
      "getDomainState(bytes32)": {
        "details": "returns LibMultipass.Domain state variables",
        "params": {
          "domainName": "name of the LibMultipass.Domain"
        },
        "returns": {
          "_0": "(name, fee, referrerReward, referralDiscount, isActive, registrar, ttl, registerSize)"
        }
      },
      "getDomainStateById(uint256)": {
        "details": "Retrieves the domain state by its ID.",
        "params": {
          "id": "The ID of the domain."
        },
        "returns": {
          "_0": "The domain state as a `LibMultipass.Domain` struct."
        }
      },
      "initialize(string,string,address)": {
        "params": {
          "name": "The name to initialize the contract with.",
          "owner": "The address of the owner of the contract.",
          "version": "The version to initialize the contract with."
        }
      },
      "initializeDomain(address,uint256,uint256,bytes32,uint256,uint256)": {
        "details": "Initializes new LibMultipass.Domain and configures it's parameters Requirements:  registrar is not zero  domainName is not empty  domainIndex is either zero(auto assign) or can be one of preoccupied LibMultipass.Domain names  domainName does not exist yet  onlyOwner  referrerReward+referralDiscount cannot be larger than fee",
        "params": {
          "domainName": "name of LibMultipass.Domain",
          "fee": "fee in base currency of network",
          "referralDiscount": "referral discount in base currency of network  Emits an {InitializedDomain} event.",
          "referrerReward": "referral fee share in base currency of network",
          "registrar": "address of registrar"
        }
      },
      "owner()": {
        "details": "Returns the address of the current owner."
      },
      "register((address,bytes32,bytes32,uint96,bytes32,uint256),bytes,(bytes32,address,bytes32,bytes32,bytes32),bytes)": {
        "details": "registers new name under LibMultipass.Domain Requirements:  all arguments must be set  domainName must be active resolveRecord for given arguments should return no LibMultipass.Record  Emits an {registered} event."
      },
      "renewRecord((bytes32,address,bytes32,bytes32,bytes32),(address,bytes32,bytes32,uint96,bytes32,uint256),bytes)": {
        "params": {
          "query": "name query",
          "record": "new record",
          "registrarSignature": "registrar signature"
        }
      },
      "renounceOwnership()": {
        "details": "Leaves the contract without owner. It will not be possible to call `onlyOwner` functions. Can only be called by the current owner. NOTE: Renouncing ownership will leave the contract without an owner, thereby disabling any functionality that is only available to the owner."
      },
      "resolveRecord((bytes32,address,bytes32,bytes32,bytes32))": {
        "details": "Retrieves the resolved record for a given name query.",
        "params": {
          "query": "The name query to resolve."
        },
        "returns": {
          "_0": "A boolean indicating whether the record was found, and the resolved record."
        }
      },
      "supportsInterface(bytes4)": {
        "details": "Checks if the contract supports a given interface.",
        "params": {
          "interfaceId": "The interface identifier, as specified in ERC-165."
        },
        "returns": {
          "_0": "bool True if the contract supports the given interface, false otherwise."
        }
      },
      "transferOwnership(address)": {
        "details": "Transfers ownership of the contract to a new account (`newOwner`). Can only be called by the current owner."
      }
    },
    "title": "Multipass",
    "version": 1
  },
  "userdoc": {
    "kind": "user",
    "methods": {
      "initialize(string,string,address)": {
        "notice": "Initializes the contract with a name, version, and owner address. This function can only be called once due to the `initializer` modifier."
      },
      "renewRecord((bytes32,address,bytes32,bytes32,bytes32),(address,bytes32,bytes32,uint96,bytes32,uint256),bytes)": {
        "notice": "renews record for given query"
      }
    },
    "version": 1
  },
  "storageLayout": {
    "storage": [],
    "types": null
  }
}